{
	"contacts.sol": {
		"TokenValidator": {
			"abi": [
				{
					"inputs": [
						{
							"internalType": "address",
							"name": "walletAddress",
							"type": "address"
						}
					],
					"name": "isWhitelisted",
					"outputs": [],
					"stateMutability": "nonpayable",
					"type": "function"
				}
			],
			"devdoc": {
				"kind": "dev",
				"methods": {},
				"version": 1
			},
			"evm": {
				"assembly": "    /* \"contacts.sol\":60:739  contract TokenValidator{... */\n  mstore(0x40, 0x80)\n    /* \"contacts.sol\":197:239  string  message = \"wallet address entered\" */\n  mload(0x40)\n  dup1\n  0x40\n  add\n  0x40\n  mstore\n  dup1\n  0x16\n  dup2\n  mstore\n  0x20\n  add\n  0x77616c6c6574206164647265737320656e746572656400000000000000000000\n  dup2\n  mstore\n  pop\n  0x02\n  swap1\n  dup2\n  tag_1\n  swap2\n  swap1\n  tag_2\n  jump\t// in\ntag_1:\n  pop\n    /* \"contacts.sol\":246:295  string message2 = \"wallet address already exists\" */\n  mload(0x40)\n  dup1\n  0x40\n  add\n  0x40\n  mstore\n  dup1\n  0x1d\n  dup2\n  mstore\n  0x20\n  add\n  0x77616c6c6574206164647265737320616c726561647920657869737473000000\n  dup2\n  mstore\n  pop\n  0x03\n  swap1\n  dup2\n  tag_3\n  swap2\n  swap1\n  tag_2\n  jump\t// in\ntag_3:\n  pop\n    /* \"contacts.sol\":60:739  contract TokenValidator{... */\n  callvalue\n  dup1\n  iszero\n  tag_4\n  jumpi\n  revert(0x00, 0x00)\ntag_4:\n  pop\n  jump(tag_5)\n    /* \"#utility.yul\":7:106   */\ntag_6:\n    /* \"#utility.yul\":59:65   */\n  0x00\n    /* \"#utility.yul\":93:98   */\n  dup2\n    /* \"#utility.yul\":87:99   */\n  mload\n    /* \"#utility.yul\":77:99   */\n  swap1\n  pop\n    /* \"#utility.yul\":7:106   */\n  swap2\n  swap1\n  pop\n  jump\t// out\n    /* \"#utility.yul\":112:292   */\ntag_7:\n    /* \"#utility.yul\":160:237   */\n  0x4e487b7100000000000000000000000000000000000000000000000000000000\n    /* \"#utility.yul\":157:158   */\n  0x00\n    /* \"#utility.yul\":150:238   */\n  mstore\n    /* \"#utility.yul\":257:261   */\n  0x41\n    /* \"#utility.yul\":254:255   */\n  0x04\n    /* \"#utility.yul\":247:262   */\n  mstore\n    /* \"#utility.yul\":281:285   */\n  0x24\n    /* \"#utility.yul\":278:279   */\n  0x00\n    /* \"#utility.yul\":271:286   */\n  revert\n    /* \"#utility.yul\":298:478   */\ntag_8:\n    /* \"#utility.yul\":346:423   */\n  0x4e487b7100000000000000000000000000000000000000000000000000000000\n    /* \"#utility.yul\":343:344   */\n  0x00\n    /* \"#utility.yul\":336:424   */\n  mstore\n    /* \"#utility.yul\":443:447   */\n  0x22\n    /* \"#utility.yul\":440:441   */\n  0x04\n    /* \"#utility.yul\":433:448   */\n  mstore\n    /* \"#utility.yul\":467:471   */\n  0x24\n    /* \"#utility.yul\":464:465   */\n  0x00\n    /* \"#utility.yul\":457:472   */\n  revert\n    /* \"#utility.yul\":484:804   */\ntag_9:\n    /* \"#utility.yul\":528:534   */\n  0x00\n    /* \"#utility.yul\":565:566   */\n  0x02\n    /* \"#utility.yul\":559:563   */\n  dup3\n    /* \"#utility.yul\":555:567   */\n  div\n    /* \"#utility.yul\":545:567   */\n  swap1\n  pop\n    /* \"#utility.yul\":612:613   */\n  0x01\n    /* \"#utility.yul\":606:610   */\n  dup3\n    /* \"#utility.yul\":602:614   */\n  and\n    /* \"#utility.yul\":633:651   */\n  dup1\n    /* \"#utility.yul\":623:704   */\n  tag_31\n  jumpi\n    /* \"#utility.yul\":689:693   */\n  0x7f\n    /* \"#utility.yul\":681:687   */\n  dup3\n    /* \"#utility.yul\":677:694   */\n  and\n    /* \"#utility.yul\":667:694   */\n  swap2\n  pop\n    /* \"#utility.yul\":623:704   */\ntag_31:\n    /* \"#utility.yul\":751:753   */\n  0x20\n    /* \"#utility.yul\":743:749   */\n  dup3\n    /* \"#utility.yul\":740:754   */\n  lt\n    /* \"#utility.yul\":720:738   */\n  dup2\n    /* \"#utility.yul\":717:755   */\n  sub\n    /* \"#utility.yul\":714:798   */\n  tag_32\n  jumpi\n    /* \"#utility.yul\":770:788   */\n  tag_33\n  tag_8\n  jump\t// in\ntag_33:\n    /* \"#utility.yul\":714:798   */\ntag_32:\n    /* \"#utility.yul\":535:804   */\n  pop\n    /* \"#utility.yul\":484:804   */\n  swap2\n  swap1\n  pop\n  jump\t// out\n    /* \"#utility.yul\":810:951   */\ntag_10:\n    /* \"#utility.yul\":859:863   */\n  0x00\n    /* \"#utility.yul\":882:885   */\n  dup2\n    /* \"#utility.yul\":874:885   */\n  swap1\n  pop\n    /* \"#utility.yul\":905:908   */\n  dup2\n    /* \"#utility.yul\":902:903   */\n  0x00\n    /* \"#utility.yul\":895:909   */\n  mstore\n    /* \"#utility.yul\":939:943   */\n  0x20\n    /* \"#utility.yul\":936:937   */\n  0x00\n    /* \"#utility.yul\":926:944   */\n  keccak256\n    /* \"#utility.yul\":918:944   */\n  swap1\n  pop\n    /* \"#utility.yul\":810:951   */\n  swap2\n  swap1\n  pop\n  jump\t// out\n    /* \"#utility.yul\":957:1050   */\ntag_11:\n    /* \"#utility.yul\":994:1000   */\n  0x00\n    /* \"#utility.yul\":1041:1043   */\n  0x20\n    /* \"#utility.yul\":1036:1038   */\n  0x1f\n    /* \"#utility.yul\":1029:1034   */\n  dup4\n    /* \"#utility.yul\":1025:1039   */\n  add\n    /* \"#utility.yul\":1021:1044   */\n  div\n    /* \"#utility.yul\":1011:1044   */\n  swap1\n  pop\n    /* \"#utility.yul\":957:1050   */\n  swap2\n  swap1\n  pop\n  jump\t// out\n    /* \"#utility.yul\":1056:1163   */\ntag_12:\n    /* \"#utility.yul\":1100:1108   */\n  0x00\n    /* \"#utility.yul\":1150:1155   */\n  dup3\n    /* \"#utility.yul\":1144:1148   */\n  dup3\n    /* \"#utility.yul\":1140:1156   */\n  shl\n    /* \"#utility.yul\":1119:1156   */\n  swap1\n  pop\n    /* \"#utility.yul\":1056:1163   */\n  swap3\n  swap2\n  pop\n  pop\n  jump\t// out\n    /* \"#utility.yul\":1169:1562   */\ntag_13:\n    /* \"#utility.yul\":1238:1244   */\n  0x00\n    /* \"#utility.yul\":1288:1289   */\n  0x08\n    /* \"#utility.yul\":1276:1286   */\n  dup4\n    /* \"#utility.yul\":1272:1290   */\n  mul\n    /* \"#utility.yul\":1311:1408   */\n  tag_38\n    /* \"#utility.yul\":1341:1407   */\n  0xffffffffffffffffffffffffffffffffffffffffffffffffffffffffffffffff\n    /* \"#utility.yul\":1330:1339   */\n  dup3\n    /* \"#utility.yul\":1311:1408   */\n  tag_12\n  jump\t// in\ntag_38:\n    /* \"#utility.yul\":1429:1468   */\n  tag_39\n    /* \"#utility.yul\":1459:1467   */\n  dup7\n    /* \"#utility.yul\":1448:1457   */\n  dup4\n    /* \"#utility.yul\":1429:1468   */\n  tag_12\n  jump\t// in\ntag_39:\n    /* \"#utility.yul\":1417:1468   */\n  swap6\n  pop\n    /* \"#utility.yul\":1501:1505   */\n  dup1\n    /* \"#utility.yul\":1497:1506   */\n  not\n    /* \"#utility.yul\":1490:1495   */\n  dup5\n    /* \"#utility.yul\":1486:1507   */\n  and\n    /* \"#utility.yul\":1477:1507   */\n  swap4\n  pop\n    /* \"#utility.yul\":1550:1554   */\n  dup1\n    /* \"#utility.yul\":1540:1548   */\n  dup7\n    /* \"#utility.yul\":1536:1555   */\n  and\n    /* \"#utility.yul\":1529:1534   */\n  dup5\n    /* \"#utility.yul\":1526:1556   */\n  or\n    /* \"#utility.yul\":1516:1556   */\n  swap3\n  pop\n    /* \"#utility.yul\":1245:1562   */\n  pop\n  pop\n    /* \"#utility.yul\":1169:1562   */\n  swap4\n  swap3\n  pop\n  pop\n  pop\n  jump\t// out\n    /* \"#utility.yul\":1568:1645   */\ntag_14:\n    /* \"#utility.yul\":1605:1612   */\n  0x00\n    /* \"#utility.yul\":1634:1639   */\n  dup2\n    /* \"#utility.yul\":1623:1639   */\n  swap1\n  pop\n    /* \"#utility.yul\":1568:1645   */\n  swap2\n  swap1\n  pop\n  jump\t// out\n    /* \"#utility.yul\":1651:1711   */\ntag_15:\n    /* \"#utility.yul\":1679:1682   */\n  0x00\n    /* \"#utility.yul\":1700:1705   */\n  dup2\n    /* \"#utility.yul\":1693:1705   */\n  swap1\n  pop\n    /* \"#utility.yul\":1651:1711   */\n  swap2\n  swap1\n  pop\n  jump\t// out\n    /* \"#utility.yul\":1717:1859   */\ntag_16:\n    /* \"#utility.yul\":1767:1776   */\n  0x00\n    /* \"#utility.yul\":1800:1853   */\n  tag_43\n    /* \"#utility.yul\":1818:1852   */\n  tag_44\n    /* \"#utility.yul\":1827:1851   */\n  tag_45\n    /* \"#utility.yul\":1845:1850   */\n  dup5\n    /* \"#utility.yul\":1827:1851   */\n  tag_14\n  jump\t// in\ntag_45:\n    /* \"#utility.yul\":1818:1852   */\n  tag_15\n  jump\t// in\ntag_44:\n    /* \"#utility.yul\":1800:1853   */\n  tag_14\n  jump\t// in\ntag_43:\n    /* \"#utility.yul\":1787:1853   */\n  swap1\n  pop\n    /* \"#utility.yul\":1717:1859   */\n  swap2\n  swap1\n  pop\n  jump\t// out\n    /* \"#utility.yul\":1865:1940   */\ntag_17:\n    /* \"#utility.yul\":1908:1911   */\n  0x00\n    /* \"#utility.yul\":1929:1934   */\n  dup2\n    /* \"#utility.yul\":1922:1934   */\n  swap1\n  pop\n    /* \"#utility.yul\":1865:1940   */\n  swap2\n  swap1\n  pop\n  jump\t// out\n    /* \"#utility.yul\":1946:2215   */\ntag_18:\n    /* \"#utility.yul\":2056:2095   */\n  tag_48\n    /* \"#utility.yul\":2087:2094   */\n  dup4\n    /* \"#utility.yul\":2056:2095   */\n  tag_16\n  jump\t// in\ntag_48:\n    /* \"#utility.yul\":2117:2208   */\n  tag_49\n    /* \"#utility.yul\":2166:2207   */\n  tag_50\n    /* \"#utility.yul\":2190:2206   */\n  dup3\n    /* \"#utility.yul\":2166:2207   */\n  tag_17\n  jump\t// in\ntag_50:\n    /* \"#utility.yul\":2158:2164   */\n  dup5\n    /* \"#utility.yul\":2151:2155   */\n  dup5\n    /* \"#utility.yul\":2145:2156   */\n  sload\n    /* \"#utility.yul\":2117:2208   */\n  tag_13\n  jump\t// in\ntag_49:\n    /* \"#utility.yul\":2111:2115   */\n  dup3\n    /* \"#utility.yul\":2104:2209   */\n  sstore\n    /* \"#utility.yul\":2022:2215   */\n  pop\n    /* \"#utility.yul\":1946:2215   */\n  pop\n  pop\n  pop\n  jump\t// out\n    /* \"#utility.yul\":2221:2294   */\ntag_19:\n    /* \"#utility.yul\":2266:2269   */\n  0x00\n    /* \"#utility.yul\":2287:2288   */\n  0x00\n    /* \"#utility.yul\":2280:2288   */\n  swap1\n  pop\n    /* \"#utility.yul\":2221:2294   */\n  swap1\n  jump\t// out\n    /* \"#utility.yul\":2300:2489   */\ntag_20:\n    /* \"#utility.yul\":2377:2409   */\n  tag_53\n  tag_19\n  jump\t// in\ntag_53:\n    /* \"#utility.yul\":2418:2483   */\n  tag_54\n    /* \"#utility.yul\":2476:2482   */\n  dup2\n    /* \"#utility.yul\":2468:2474   */\n  dup5\n    /* \"#utility.yul\":2462:2466   */\n  dup5\n    /* \"#utility.yul\":2418:2483   */\n  tag_18\n  jump\t// in\ntag_54:\n    /* \"#utility.yul\":2353:2489   */\n  pop\n    /* \"#utility.yul\":2300:2489   */\n  pop\n  pop\n  jump\t// out\n    /* \"#utility.yul\":2495:2681   */\ntag_21:\n    /* \"#utility.yul\":2555:2675   */\ntag_56:\n    /* \"#utility.yul\":2572:2575   */\n  dup2\n    /* \"#utility.yul\":2565:2570   */\n  dup2\n    /* \"#utility.yul\":2562:2576   */\n  lt\n    /* \"#utility.yul\":2555:2675   */\n  iszero\n  tag_58\n  jumpi\n    /* \"#utility.yul\":2626:2665   */\n  tag_59\n    /* \"#utility.yul\":2663:2664   */\n  0x00\n    /* \"#utility.yul\":2656:2661   */\n  dup3\n    /* \"#utility.yul\":2626:2665   */\n  tag_20\n  jump\t// in\ntag_59:\n    /* \"#utility.yul\":2599:2600   */\n  0x01\n    /* \"#utility.yul\":2592:2597   */\n  dup2\n    /* \"#utility.yul\":2588:2601   */\n  add\n    /* \"#utility.yul\":2579:2601   */\n  swap1\n  pop\n    /* \"#utility.yul\":2555:2675   */\n  jump(tag_56)\ntag_58:\n    /* \"#utility.yul\":2495:2681   */\n  pop\n  pop\n  jump\t// out\n    /* \"#utility.yul\":2687:3230   */\ntag_22:\n    /* \"#utility.yul\":2788:2790   */\n  0x1f\n    /* \"#utility.yul\":2783:2786   */\n  dup3\n    /* \"#utility.yul\":2780:2791   */\n  gt\n    /* \"#utility.yul\":2777:3223   */\n  iszero\n  tag_61\n  jumpi\n    /* \"#utility.yul\":2822:2860   */\n  tag_62\n    /* \"#utility.yul\":2854:2859   */\n  dup2\n    /* \"#utility.yul\":2822:2860   */\n  tag_10\n  jump\t// in\ntag_62:\n    /* \"#utility.yul\":2906:2935   */\n  tag_63\n    /* \"#utility.yul\":2924:2934   */\n  dup5\n    /* \"#utility.yul\":2906:2935   */\n  tag_11\n  jump\t// in\ntag_63:\n    /* \"#utility.yul\":2896:2904   */\n  dup2\n    /* \"#utility.yul\":2892:2936   */\n  add\n    /* \"#utility.yul\":3089:3091   */\n  0x20\n    /* \"#utility.yul\":3077:3087   */\n  dup6\n    /* \"#utility.yul\":3074:3092   */\n  lt\n    /* \"#utility.yul\":3071:3120   */\n  iszero\n  tag_64\n  jumpi\n    /* \"#utility.yul\":3110:3118   */\n  dup2\n    /* \"#utility.yul\":3095:3118   */\n  swap1\n  pop\n    /* \"#utility.yul\":3071:3120   */\ntag_64:\n    /* \"#utility.yul\":3133:3213   */\n  tag_65\n    /* \"#utility.yul\":3189:3211   */\n  tag_66\n    /* \"#utility.yul\":3207:3210   */\n  dup6\n    /* \"#utility.yul\":3189:3211   */\n  tag_11\n  jump\t// in\ntag_66:\n    /* \"#utility.yul\":3179:3187   */\n  dup4\n    /* \"#utility.yul\":3175:3212   */\n  add\n    /* \"#utility.yul\":3162:3173   */\n  dup3\n    /* \"#utility.yul\":3133:3213   */\n  tag_21\n  jump\t// in\ntag_65:\n    /* \"#utility.yul\":2792:3223   */\n  pop\n  pop\n    /* \"#utility.yul\":2777:3223   */\ntag_61:\n    /* \"#utility.yul\":2687:3230   */\n  pop\n  pop\n  pop\n  jump\t// out\n    /* \"#utility.yul\":3236:3353   */\ntag_23:\n    /* \"#utility.yul\":3290:3298   */\n  0x00\n    /* \"#utility.yul\":3340:3345   */\n  dup3\n    /* \"#utility.yul\":3334:3338   */\n  dup3\n    /* \"#utility.yul\":3330:3346   */\n  shr\n    /* \"#utility.yul\":3309:3346   */\n  swap1\n  pop\n    /* \"#utility.yul\":3236:3353   */\n  swap3\n  swap2\n  pop\n  pop\n  jump\t// out\n    /* \"#utility.yul\":3359:3528   */\ntag_24:\n    /* \"#utility.yul\":3403:3409   */\n  0x00\n    /* \"#utility.yul\":3436:3487   */\n  tag_69\n    /* \"#utility.yul\":3484:3485   */\n  0x00\n    /* \"#utility.yul\":3480:3486   */\n  not\n    /* \"#utility.yul\":3472:3477   */\n  dup5\n    /* \"#utility.yul\":3469:3470   */\n  0x08\n    /* \"#utility.yul\":3465:3478   */\n  mul\n    /* \"#utility.yul\":3436:3487   */\n  tag_23\n  jump\t// in\ntag_69:\n    /* \"#utility.yul\":3432:3488   */\n  not\n    /* \"#utility.yul\":3517:3521   */\n  dup1\n    /* \"#utility.yul\":3511:3515   */\n  dup4\n    /* \"#utility.yul\":3507:3522   */\n  and\n    /* \"#utility.yul\":3497:3522   */\n  swap2\n  pop\n    /* \"#utility.yul\":3410:3528   */\n  pop\n    /* \"#utility.yul\":3359:3528   */\n  swap3\n  swap2\n  pop\n  pop\n  jump\t// out\n    /* \"#utility.yul\":3533:3828   */\ntag_25:\n    /* \"#utility.yul\":3609:3613   */\n  0x00\n    /* \"#utility.yul\":3755:3784   */\n  tag_71\n    /* \"#utility.yul\":3780:3783   */\n  dup4\n    /* \"#utility.yul\":3774:3778   */\n  dup4\n    /* \"#utility.yul\":3755:3784   */\n  tag_24\n  jump\t// in\ntag_71:\n    /* \"#utility.yul\":3747:3784   */\n  swap2\n  pop\n    /* \"#utility.yul\":3817:3820   */\n  dup3\n    /* \"#utility.yul\":3814:3815   */\n  0x02\n    /* \"#utility.yul\":3810:3821   */\n  mul\n    /* \"#utility.yul\":3804:3808   */\n  dup3\n    /* \"#utility.yul\":3801:3822   */\n  or\n    /* \"#utility.yul\":3793:3822   */\n  swap1\n  pop\n    /* \"#utility.yul\":3533:3828   */\n  swap3\n  swap2\n  pop\n  pop\n  jump\t// out\n    /* \"#utility.yul\":3833:5228   */\ntag_2:\n    /* \"#utility.yul\":3950:3987   */\n  tag_73\n    /* \"#utility.yul\":3983:3986   */\n  dup3\n    /* \"#utility.yul\":3950:3987   */\n  tag_6\n  jump\t// in\ntag_73:\n    /* \"#utility.yul\":4052:4070   */\n  0xffffffffffffffff\n    /* \"#utility.yul\":4044:4050   */\n  dup2\n    /* \"#utility.yul\":4041:4071   */\n  gt\n    /* \"#utility.yul\":4038:4094   */\n  iszero\n  tag_74\n  jumpi\n    /* \"#utility.yul\":4074:4092   */\n  tag_75\n  tag_7\n  jump\t// in\ntag_75:\n    /* \"#utility.yul\":4038:4094   */\ntag_74:\n    /* \"#utility.yul\":4118:4156   */\n  tag_76\n    /* \"#utility.yul\":4150:4154   */\n  dup3\n    /* \"#utility.yul\":4144:4155   */\n  sload\n    /* \"#utility.yul\":4118:4156   */\n  tag_9\n  jump\t// in\ntag_76:\n    /* \"#utility.yul\":4203:4270   */\n  tag_77\n    /* \"#utility.yul\":4263:4269   */\n  dup3\n    /* \"#utility.yul\":4255:4261   */\n  dup3\n    /* \"#utility.yul\":4249:4253   */\n  dup6\n    /* \"#utility.yul\":4203:4270   */\n  tag_22\n  jump\t// in\ntag_77:\n    /* \"#utility.yul\":4297:4298   */\n  0x00\n    /* \"#utility.yul\":4321:4325   */\n  0x20\n    /* \"#utility.yul\":4308:4325   */\n  swap1\n  pop\n    /* \"#utility.yul\":4353:4355   */\n  0x1f\n    /* \"#utility.yul\":4345:4351   */\n  dup4\n    /* \"#utility.yul\":4342:4356   */\n  gt\n    /* \"#utility.yul\":4370:4371   */\n  0x01\n    /* \"#utility.yul\":4365:4983   */\n  dup2\n  eq\n  tag_79\n  jumpi\n    /* \"#utility.yul\":5027:5028   */\n  0x00\n    /* \"#utility.yul\":5044:5050   */\n  dup5\n    /* \"#utility.yul\":5041:5118   */\n  iszero\n  tag_80\n  jumpi\n    /* \"#utility.yul\":5093:5102   */\n  dup3\n    /* \"#utility.yul\":5088:5091   */\n  dup8\n    /* \"#utility.yul\":5084:5103   */\n  add\n    /* \"#utility.yul\":5078:5104   */\n  mload\n    /* \"#utility.yul\":5069:5104   */\n  swap1\n  pop\n    /* \"#utility.yul\":5041:5118   */\ntag_80:\n    /* \"#utility.yul\":5144:5211   */\n  tag_81\n    /* \"#utility.yul\":5204:5210   */\n  dup6\n    /* \"#utility.yul\":5197:5202   */\n  dup3\n    /* \"#utility.yul\":5144:5211   */\n  tag_25\n  jump\t// in\ntag_81:\n    /* \"#utility.yul\":5138:5142   */\n  dup7\n    /* \"#utility.yul\":5131:5212   */\n  sstore\n    /* \"#utility.yul\":5000:5222   */\n  pop\n    /* \"#utility.yul\":4335:5222   */\n  jump(tag_78)\n    /* \"#utility.yul\":4365:4983   */\ntag_79:\n    /* \"#utility.yul\":4417:4421   */\n  0x1f\n    /* \"#utility.yul\":4413:4422   */\n  not\n    /* \"#utility.yul\":4405:4411   */\n  dup5\n    /* \"#utility.yul\":4401:4423   */\n  and\n    /* \"#utility.yul\":4451:4488   */\n  tag_82\n    /* \"#utility.yul\":4483:4487   */\n  dup7\n    /* \"#utility.yul\":4451:4488   */\n  tag_10\n  jump\t// in\ntag_82:\n    /* \"#utility.yul\":4510:4511   */\n  0x00\n    /* \"#utility.yul\":4524:4732   */\ntag_83:\n    /* \"#utility.yul\":4538:4545   */\n  dup3\n    /* \"#utility.yul\":4535:4536   */\n  dup2\n    /* \"#utility.yul\":4532:4546   */\n  lt\n    /* \"#utility.yul\":4524:4732   */\n  iszero\n  tag_85\n  jumpi\n    /* \"#utility.yul\":4617:4626   */\n  dup5\n    /* \"#utility.yul\":4612:4615   */\n  dup10\n    /* \"#utility.yul\":4608:4627   */\n  add\n    /* \"#utility.yul\":4602:4628   */\n  mload\n    /* \"#utility.yul\":4594:4600   */\n  dup3\n    /* \"#utility.yul\":4587:4629   */\n  sstore\n    /* \"#utility.yul\":4668:4669   */\n  0x01\n    /* \"#utility.yul\":4660:4666   */\n  dup3\n    /* \"#utility.yul\":4656:4670   */\n  add\n    /* \"#utility.yul\":4646:4670   */\n  swap2\n  pop\n    /* \"#utility.yul\":4715:4717   */\n  0x20\n    /* \"#utility.yul\":4704:4713   */\n  dup6\n    /* \"#utility.yul\":4700:4718   */\n  add\n    /* \"#utility.yul\":4687:4718   */\n  swap5\n  pop\n    /* \"#utility.yul\":4561:4565   */\n  0x20\n    /* \"#utility.yul\":4558:4559   */\n  dup2\n    /* \"#utility.yul\":4554:4566   */\n  add\n    /* \"#utility.yul\":4549:4566   */\n  swap1\n  pop\n    /* \"#utility.yul\":4524:4732   */\n  jump(tag_83)\ntag_85:\n    /* \"#utility.yul\":4760:4766   */\n  dup7\n    /* \"#utility.yul\":4751:4758   */\n  dup4\n    /* \"#utility.yul\":4748:4767   */\n  lt\n    /* \"#utility.yul\":4745:4924   */\n  iszero\n  tag_86\n  jumpi\n    /* \"#utility.yul\":4818:4827   */\n  dup5\n    /* \"#utility.yul\":4813:4816   */\n  dup10\n    /* \"#utility.yul\":4809:4828   */\n  add\n    /* \"#utility.yul\":4803:4829   */\n  mload\n    /* \"#utility.yul\":4861:4909   */\n  tag_87\n    /* \"#utility.yul\":4903:4907   */\n  0x1f\n    /* \"#utility.yul\":4895:4901   */\n  dup10\n    /* \"#utility.yul\":4891:4908   */\n  and\n    /* \"#utility.yul\":4880:4889   */\n  dup3\n    /* \"#utility.yul\":4861:4909   */\n  tag_24\n  jump\t// in\ntag_87:\n    /* \"#utility.yul\":4853:4859   */\n  dup4\n    /* \"#utility.yul\":4846:4910   */\n  sstore\n    /* \"#utility.yul\":4768:4924   */\n  pop\n    /* \"#utility.yul\":4745:4924   */\ntag_86:\n    /* \"#utility.yul\":4970:4971   */\n  0x01\n    /* \"#utility.yul\":4966:4967   */\n  0x02\n    /* \"#utility.yul\":4958:4964   */\n  dup9\n    /* \"#utility.yul\":4954:4968   */\n  mul\n    /* \"#utility.yul\":4950:4972   */\n  add\n    /* \"#utility.yul\":4944:4948   */\n  dup9\n    /* \"#utility.yul\":4937:4973   */\n  sstore\n    /* \"#utility.yul\":4372:4983   */\n  pop\n  pop\n  pop\n    /* \"#utility.yul\":4335:5222   */\ntag_78:\n  pop\n    /* \"#utility.yul\":3925:5228   */\n  pop\n  pop\n  pop\n    /* \"#utility.yul\":3833:5228   */\n  pop\n  pop\n  jump\t// out\n    /* \"contacts.sol\":60:739  contract TokenValidator{... */\ntag_5:\n  dataSize(sub_0)\n  dup1\n  dataOffset(sub_0)\n  0x00\n  codecopy\n  0x00\n  return\nstop\n\nsub_0: assembly {\n        /* \"contacts.sol\":60:739  contract TokenValidator{... */\n      mstore(0x40, 0x80)\n      callvalue\n      dup1\n      iszero\n      tag_1\n      jumpi\n      revert(0x00, 0x00)\n    tag_1:\n      pop\n      jumpi(tag_2, lt(calldatasize, 0x04))\n      shr(0xe0, calldataload(0x00))\n      dup1\n      0x3af32abf\n      eq\n      tag_3\n      jumpi\n    tag_2:\n      revert(0x00, 0x00)\n        /* \"contacts.sol\":417:726  function isWhitelisted(address walletAddress) public {... */\n    tag_3:\n      tag_4\n      0x04\n      dup1\n      calldatasize\n      sub\n      dup2\n      add\n      swap1\n      tag_5\n      swap2\n      swap1\n      tag_6\n      jump\t// in\n    tag_5:\n      tag_7\n      jump\t// in\n    tag_4:\n      stop\n    tag_7:\n        /* \"contacts.sol\":490:503  AddressToBool */\n      0x00\n        /* \"contacts.sol\":490:518  AddressToBool[walletAddress] */\n      0x00\n        /* \"contacts.sol\":504:517  walletAddress */\n      dup3\n        /* \"contacts.sol\":490:518  AddressToBool[walletAddress] */\n      0xffffffffffffffffffffffffffffffffffffffff\n      and\n      0xffffffffffffffffffffffffffffffffffffffff\n      and\n      dup2\n      mstore\n      0x20\n      add\n      swap1\n      dup2\n      mstore\n      0x20\n      add\n      0x00\n      keccak256\n      0x00\n      swap1\n      sload\n      swap1\n      0x0100\n      exp\n      swap1\n      div\n      0xff\n      and\n        /* \"contacts.sol\":489:518  !AddressToBool[walletAddress] */\n      iszero\n        /* \"contacts.sol\":481:550  require(!AddressToBool[walletAddress], \"this address already exists\") */\n      tag_9\n      jumpi\n      mload(0x40)\n      0x08c379a000000000000000000000000000000000000000000000000000000000\n      dup2\n      mstore\n      0x04\n      add\n      tag_10\n      swap1\n      tag_11\n      jump\t// in\n    tag_10:\n      mload(0x40)\n      dup1\n      swap2\n      sub\n      swap1\n      revert\n    tag_9:\n        /* \"contacts.sol\":594:601  message */\n      0x02\n        /* \"contacts.sol\":561:576  AddressToString */\n      0x01\n        /* \"contacts.sol\":561:591  AddressToString[walletAddress] */\n      0x00\n        /* \"contacts.sol\":577:590  walletAddress */\n      dup4\n        /* \"contacts.sol\":561:591  AddressToString[walletAddress] */\n      0xffffffffffffffffffffffffffffffffffffffff\n      and\n      0xffffffffffffffffffffffffffffffffffffffff\n      and\n      dup2\n      mstore\n      0x20\n      add\n      swap1\n      dup2\n      mstore\n      0x20\n      add\n      0x00\n      keccak256\n        /* \"contacts.sol\":561:601  AddressToString[walletAddress] = message */\n      swap1\n      dup2\n      tag_12\n      swap2\n      swap1\n      tag_13\n      jump\t// in\n    tag_12:\n      pop\n        /* \"contacts.sol\":643:647  true */\n      0x01\n        /* \"contacts.sol\":612:625  AddressToBool */\n      0x00\n        /* \"contacts.sol\":612:640  AddressToBool[walletAddress] */\n      0x00\n        /* \"contacts.sol\":626:639  walletAddress */\n      dup4\n        /* \"contacts.sol\":612:640  AddressToBool[walletAddress] */\n      0xffffffffffffffffffffffffffffffffffffffff\n      and\n      0xffffffffffffffffffffffffffffffffffffffff\n      and\n      dup2\n      mstore\n      0x20\n      add\n      swap1\n      dup2\n      mstore\n      0x20\n      add\n      0x00\n      keccak256\n      0x00\n        /* \"contacts.sol\":612:647  AddressToBool[walletAddress] = true */\n      0x0100\n      exp\n      dup2\n      sload\n      dup2\n      0xff\n      mul\n      not\n      and\n      swap1\n      dup4\n      iszero\n      iszero\n      mul\n      or\n      swap1\n      sstore\n      pop\n        /* \"contacts.sol\":658:667  addresses */\n      0x04\n        /* \"contacts.sol\":673:697  Addresses(walletAddress) */\n      mload(0x40)\n      dup1\n      0x20\n      add\n      0x40\n      mstore\n      dup1\n        /* \"contacts.sol\":683:696  walletAddress */\n      dup4\n        /* \"contacts.sol\":673:697  Addresses(walletAddress) */\n      0xffffffffffffffffffffffffffffffffffffffff\n      and\n      dup2\n      mstore\n      pop\n        /* \"contacts.sol\":658:698  addresses.push(Addresses(walletAddress)) */\n      swap1\n      dup1\n      0x01\n      dup2\n      sload\n      add\n      dup1\n      dup3\n      sstore\n      dup1\n      swap2\n      pop\n      pop\n      0x01\n      swap1\n      sub\n      swap1\n      0x00\n      mstore\n      keccak256(0x00, 0x20)\n      add\n      0x00\n      swap1\n      swap2\n      swap1\n      swap2\n      swap1\n      swap2\n      pop\n      0x00\n      dup3\n      add\n      mload\n      dup2\n      0x00\n      add\n      exp(0x0100, 0x00)\n      dup2\n      sload\n      dup2\n      0xffffffffffffffffffffffffffffffffffffffff\n      mul\n      not\n      and\n      swap1\n      dup4\n      0xffffffffffffffffffffffffffffffffffffffff\n      and\n      mul\n      or\n      swap1\n      sstore\n      pop\n      pop\n      pop\n        /* \"contacts.sol\":417:726  function isWhitelisted(address walletAddress) public {... */\n      pop\n      jump\t// out\n        /* \"#utility.yul\":88:205   */\n    tag_16:\n        /* \"#utility.yul\":197:198   */\n      0x00\n        /* \"#utility.yul\":194:195   */\n      0x00\n        /* \"#utility.yul\":187:199   */\n      revert\n        /* \"#utility.yul\":334:460   */\n    tag_18:\n        /* \"#utility.yul\":371:378   */\n      0x00\n        /* \"#utility.yul\":411:453   */\n      0xffffffffffffffffffffffffffffffffffffffff\n        /* \"#utility.yul\":404:409   */\n      dup3\n        /* \"#utility.yul\":400:454   */\n      and\n        /* \"#utility.yul\":389:454   */\n      swap1\n      pop\n        /* \"#utility.yul\":334:460   */\n      swap2\n      swap1\n      pop\n      jump\t// out\n        /* \"#utility.yul\":466:562   */\n    tag_19:\n        /* \"#utility.yul\":503:510   */\n      0x00\n        /* \"#utility.yul\":532:556   */\n      tag_52\n        /* \"#utility.yul\":550:555   */\n      dup3\n        /* \"#utility.yul\":532:556   */\n      tag_18\n      jump\t// in\n    tag_52:\n        /* \"#utility.yul\":521:556   */\n      swap1\n      pop\n        /* \"#utility.yul\":466:562   */\n      swap2\n      swap1\n      pop\n      jump\t// out\n        /* \"#utility.yul\":568:690   */\n    tag_20:\n        /* \"#utility.yul\":641:665   */\n      tag_54\n        /* \"#utility.yul\":659:664   */\n      dup2\n        /* \"#utility.yul\":641:665   */\n      tag_19\n      jump\t// in\n    tag_54:\n        /* \"#utility.yul\":634:639   */\n      dup2\n        /* \"#utility.yul\":631:666   */\n      eq\n        /* \"#utility.yul\":621:684   */\n      tag_55\n      jumpi\n        /* \"#utility.yul\":680:681   */\n      0x00\n        /* \"#utility.yul\":677:678   */\n      0x00\n        /* \"#utility.yul\":670:682   */\n      revert\n        /* \"#utility.yul\":621:684   */\n    tag_55:\n        /* \"#utility.yul\":568:690   */\n      pop\n      jump\t// out\n        /* \"#utility.yul\":696:835   */\n    tag_21:\n        /* \"#utility.yul\":742:747   */\n      0x00\n        /* \"#utility.yul\":780:786   */\n      dup2\n        /* \"#utility.yul\":767:787   */\n      calldataload\n        /* \"#utility.yul\":758:787   */\n      swap1\n      pop\n        /* \"#utility.yul\":796:829   */\n      tag_57\n        /* \"#utility.yul\":823:828   */\n      dup2\n        /* \"#utility.yul\":796:829   */\n      tag_20\n      jump\t// in\n    tag_57:\n        /* \"#utility.yul\":696:835   */\n      swap3\n      swap2\n      pop\n      pop\n      jump\t// out\n        /* \"#utility.yul\":841:1170   */\n    tag_6:\n        /* \"#utility.yul\":900:906   */\n      0x00\n        /* \"#utility.yul\":949:951   */\n      0x20\n        /* \"#utility.yul\":937:946   */\n      dup3\n        /* \"#utility.yul\":928:935   */\n      dup5\n        /* \"#utility.yul\":924:947   */\n      sub\n        /* \"#utility.yul\":920:952   */\n      slt\n        /* \"#utility.yul\":917:1036   */\n      iszero\n      tag_59\n      jumpi\n        /* \"#utility.yul\":955:1034   */\n      tag_60\n      tag_16\n      jump\t// in\n    tag_60:\n        /* \"#utility.yul\":917:1036   */\n    tag_59:\n        /* \"#utility.yul\":1075:1076   */\n      0x00\n        /* \"#utility.yul\":1100:1153   */\n      tag_61\n        /* \"#utility.yul\":1145:1152   */\n      dup5\n        /* \"#utility.yul\":1136:1142   */\n      dup3\n        /* \"#utility.yul\":1125:1134   */\n      dup6\n        /* \"#utility.yul\":1121:1143   */\n      add\n        /* \"#utility.yul\":1100:1153   */\n      tag_21\n      jump\t// in\n    tag_61:\n        /* \"#utility.yul\":1090:1153   */\n      swap2\n      pop\n        /* \"#utility.yul\":1046:1163   */\n      pop\n        /* \"#utility.yul\":841:1170   */\n      swap3\n      swap2\n      pop\n      pop\n      jump\t// out\n        /* \"#utility.yul\":1176:1345   */\n    tag_22:\n        /* \"#utility.yul\":1260:1271   */\n      0x00\n        /* \"#utility.yul\":1294:1300   */\n      dup3\n        /* \"#utility.yul\":1289:1292   */\n      dup3\n        /* \"#utility.yul\":1282:1301   */\n      mstore\n        /* \"#utility.yul\":1334:1338   */\n      0x20\n        /* \"#utility.yul\":1329:1332   */\n      dup3\n        /* \"#utility.yul\":1325:1339   */\n      add\n        /* \"#utility.yul\":1310:1339   */\n      swap1\n      pop\n        /* \"#utility.yul\":1176:1345   */\n      swap3\n      swap2\n      pop\n      pop\n      jump\t// out\n        /* \"#utility.yul\":1351:1528   */\n    tag_23:\n        /* \"#utility.yul\":1491:1520   */\n      0x74686973206164647265737320616c7265616479206578697374730000000000\n        /* \"#utility.yul\":1487:1488   */\n      0x00\n        /* \"#utility.yul\":1479:1485   */\n      dup3\n        /* \"#utility.yul\":1475:1489   */\n      add\n        /* \"#utility.yul\":1468:1521   */\n      mstore\n        /* \"#utility.yul\":1351:1528   */\n      pop\n      jump\t// out\n        /* \"#utility.yul\":1534:1900   */\n    tag_24:\n        /* \"#utility.yul\":1676:1679   */\n      0x00\n        /* \"#utility.yul\":1697:1764   */\n      tag_65\n        /* \"#utility.yul\":1761:1763   */\n      0x1b\n        /* \"#utility.yul\":1756:1759   */\n      dup4\n        /* \"#utility.yul\":1697:1764   */\n      tag_22\n      jump\t// in\n    tag_65:\n        /* \"#utility.yul\":1690:1764   */\n      swap2\n      pop\n        /* \"#utility.yul\":1773:1866   */\n      tag_66\n        /* \"#utility.yul\":1862:1865   */\n      dup3\n        /* \"#utility.yul\":1773:1866   */\n      tag_23\n      jump\t// in\n    tag_66:\n        /* \"#utility.yul\":1891:1893   */\n      0x20\n        /* \"#utility.yul\":1886:1889   */\n      dup3\n        /* \"#utility.yul\":1882:1894   */\n      add\n        /* \"#utility.yul\":1875:1894   */\n      swap1\n      pop\n        /* \"#utility.yul\":1534:1900   */\n      swap2\n      swap1\n      pop\n      jump\t// out\n        /* \"#utility.yul\":1906:2325   */\n    tag_11:\n        /* \"#utility.yul\":2072:2076   */\n      0x00\n        /* \"#utility.yul\":2110:2112   */\n      0x20\n        /* \"#utility.yul\":2099:2108   */\n      dup3\n        /* \"#utility.yul\":2095:2113   */\n      add\n        /* \"#utility.yul\":2087:2113   */\n      swap1\n      pop\n        /* \"#utility.yul\":2159:2168   */\n      dup2\n        /* \"#utility.yul\":2153:2157   */\n      dup2\n        /* \"#utility.yul\":2149:2169   */\n      sub\n        /* \"#utility.yul\":2145:2146   */\n      0x00\n        /* \"#utility.yul\":2134:2143   */\n      dup4\n        /* \"#utility.yul\":2130:2147   */\n      add\n        /* \"#utility.yul\":2123:2170   */\n      mstore\n        /* \"#utility.yul\":2187:2318   */\n      tag_68\n        /* \"#utility.yul\":2313:2317   */\n      dup2\n        /* \"#utility.yul\":2187:2318   */\n      tag_24\n      jump\t// in\n    tag_68:\n        /* \"#utility.yul\":2179:2318   */\n      swap1\n      pop\n        /* \"#utility.yul\":1906:2325   */\n      swap2\n      swap1\n      pop\n      jump\t// out\n        /* \"#utility.yul\":2331:2511   */\n    tag_25:\n        /* \"#utility.yul\":2379:2456   */\n      0x4e487b7100000000000000000000000000000000000000000000000000000000\n        /* \"#utility.yul\":2376:2377   */\n      0x00\n        /* \"#utility.yul\":2369:2457   */\n      mstore\n        /* \"#utility.yul\":2476:2480   */\n      0x22\n        /* \"#utility.yul\":2473:2474   */\n      0x04\n        /* \"#utility.yul\":2466:2481   */\n      mstore\n        /* \"#utility.yul\":2500:2504   */\n      0x24\n        /* \"#utility.yul\":2497:2498   */\n      0x00\n        /* \"#utility.yul\":2490:2505   */\n      revert\n        /* \"#utility.yul\":2517:2837   */\n    tag_26:\n        /* \"#utility.yul\":2561:2567   */\n      0x00\n        /* \"#utility.yul\":2598:2599   */\n      0x02\n        /* \"#utility.yul\":2592:2596   */\n      dup3\n        /* \"#utility.yul\":2588:2600   */\n      div\n        /* \"#utility.yul\":2578:2600   */\n      swap1\n      pop\n        /* \"#utility.yul\":2645:2646   */\n      0x01\n        /* \"#utility.yul\":2639:2643   */\n      dup3\n        /* \"#utility.yul\":2635:2647   */\n      and\n        /* \"#utility.yul\":2666:2684   */\n      dup1\n        /* \"#utility.yul\":2656:2737   */\n      tag_71\n      jumpi\n        /* \"#utility.yul\":2722:2726   */\n      0x7f\n        /* \"#utility.yul\":2714:2720   */\n      dup3\n        /* \"#utility.yul\":2710:2727   */\n      and\n        /* \"#utility.yul\":2700:2727   */\n      swap2\n      pop\n        /* \"#utility.yul\":2656:2737   */\n    tag_71:\n        /* \"#utility.yul\":2784:2786   */\n      0x20\n        /* \"#utility.yul\":2776:2782   */\n      dup3\n        /* \"#utility.yul\":2773:2787   */\n      lt\n        /* \"#utility.yul\":2753:2771   */\n      dup2\n        /* \"#utility.yul\":2750:2788   */\n      sub\n        /* \"#utility.yul\":2747:2831   */\n      tag_72\n      jumpi\n        /* \"#utility.yul\":2803:2821   */\n      tag_73\n      tag_25\n      jump\t// in\n    tag_73:\n        /* \"#utility.yul\":2747:2831   */\n    tag_72:\n        /* \"#utility.yul\":2568:2837   */\n      pop\n        /* \"#utility.yul\":2517:2837   */\n      swap2\n      swap1\n      pop\n      jump\t// out\n        /* \"#utility.yul\":2843:2996   */\n    tag_27:\n        /* \"#utility.yul\":2896:2902   */\n      0x00\n        /* \"#utility.yul\":2930:2935   */\n      dup2\n        /* \"#utility.yul\":2924:2936   */\n      sload\n        /* \"#utility.yul\":2914:2936   */\n      swap1\n      pop\n        /* \"#utility.yul\":2956:2989   */\n      tag_75\n        /* \"#utility.yul\":2982:2988   */\n      dup2\n        /* \"#utility.yul\":2956:2989   */\n      tag_26\n      jump\t// in\n    tag_75:\n        /* \"#utility.yul\":2946:2989   */\n      swap1\n      pop\n        /* \"#utility.yul\":2843:2996   */\n      swap2\n      swap1\n      pop\n      jump\t// out\n        /* \"#utility.yul\":3002:3182   */\n    tag_28:\n        /* \"#utility.yul\":3050:3127   */\n      0x4e487b7100000000000000000000000000000000000000000000000000000000\n        /* \"#utility.yul\":3047:3048   */\n      0x00\n        /* \"#utility.yul\":3040:3128   */\n      mstore\n        /* \"#utility.yul\":3147:3151   */\n      0x41\n        /* \"#utility.yul\":3144:3145   */\n      0x04\n        /* \"#utility.yul\":3137:3152   */\n      mstore\n        /* \"#utility.yul\":3171:3175   */\n      0x24\n        /* \"#utility.yul\":3168:3169   */\n      0x00\n        /* \"#utility.yul\":3161:3176   */\n      revert\n        /* \"#utility.yul\":3188:3329   */\n    tag_29:\n        /* \"#utility.yul\":3237:3241   */\n      0x00\n        /* \"#utility.yul\":3260:3263   */\n      dup2\n        /* \"#utility.yul\":3252:3263   */\n      swap1\n      pop\n        /* \"#utility.yul\":3283:3286   */\n      dup2\n        /* \"#utility.yul\":3280:3281   */\n      0x00\n        /* \"#utility.yul\":3273:3287   */\n      mstore\n        /* \"#utility.yul\":3317:3321   */\n      0x20\n        /* \"#utility.yul\":3314:3315   */\n      0x00\n        /* \"#utility.yul\":3304:3322   */\n      keccak256\n        /* \"#utility.yul\":3296:3322   */\n      swap1\n      pop\n        /* \"#utility.yul\":3188:3329   */\n      swap2\n      swap1\n      pop\n      jump\t// out\n        /* \"#utility.yul\":3335:3480   */\n    tag_30:\n        /* \"#utility.yul\":3388:3392   */\n      0x00\n        /* \"#utility.yul\":3411:3414   */\n      dup2\n        /* \"#utility.yul\":3403:3414   */\n      swap1\n      pop\n        /* \"#utility.yul\":3434:3437   */\n      dup2\n        /* \"#utility.yul\":3431:3432   */\n      0x00\n        /* \"#utility.yul\":3424:3438   */\n      mstore\n        /* \"#utility.yul\":3468:3472   */\n      0x20\n        /* \"#utility.yul\":3465:3466   */\n      0x00\n        /* \"#utility.yul\":3455:3473   */\n      keccak256\n        /* \"#utility.yul\":3447:3473   */\n      swap1\n      pop\n        /* \"#utility.yul\":3335:3480   */\n      swap2\n      swap1\n      pop\n      jump\t// out\n        /* \"#utility.yul\":3486:3579   */\n    tag_31:\n        /* \"#utility.yul\":3523:3529   */\n      0x00\n        /* \"#utility.yul\":3570:3572   */\n      0x20\n        /* \"#utility.yul\":3565:3567   */\n      0x1f\n        /* \"#utility.yul\":3558:3563   */\n      dup4\n        /* \"#utility.yul\":3554:3568   */\n      add\n        /* \"#utility.yul\":3550:3573   */\n      div\n        /* \"#utility.yul\":3540:3573   */\n      swap1\n      pop\n        /* \"#utility.yul\":3486:3579   */\n      swap2\n      swap1\n      pop\n      jump\t// out\n        /* \"#utility.yul\":3585:3692   */\n    tag_32:\n        /* \"#utility.yul\":3629:3637   */\n      0x00\n        /* \"#utility.yul\":3679:3684   */\n      dup3\n        /* \"#utility.yul\":3673:3677   */\n      dup3\n        /* \"#utility.yul\":3669:3685   */\n      shl\n        /* \"#utility.yul\":3648:3685   */\n      swap1\n      pop\n        /* \"#utility.yul\":3585:3692   */\n      swap3\n      swap2\n      pop\n      pop\n      jump\t// out\n        /* \"#utility.yul\":3698:4091   */\n    tag_33:\n        /* \"#utility.yul\":3767:3773   */\n      0x00\n        /* \"#utility.yul\":3817:3818   */\n      0x08\n        /* \"#utility.yul\":3805:3815   */\n      dup4\n        /* \"#utility.yul\":3801:3819   */\n      mul\n        /* \"#utility.yul\":3840:3937   */\n      tag_82\n        /* \"#utility.yul\":3870:3936   */\n      0xffffffffffffffffffffffffffffffffffffffffffffffffffffffffffffffff\n        /* \"#utility.yul\":3859:3868   */\n      dup3\n        /* \"#utility.yul\":3840:3937   */\n      tag_32\n      jump\t// in\n    tag_82:\n        /* \"#utility.yul\":3958:3997   */\n      tag_83\n        /* \"#utility.yul\":3988:3996   */\n      dup7\n        /* \"#utility.yul\":3977:3986   */\n      dup4\n        /* \"#utility.yul\":3958:3997   */\n      tag_32\n      jump\t// in\n    tag_83:\n        /* \"#utility.yul\":3946:3997   */\n      swap6\n      pop\n        /* \"#utility.yul\":4030:4034   */\n      dup1\n        /* \"#utility.yul\":4026:4035   */\n      not\n        /* \"#utility.yul\":4019:4024   */\n      dup5\n        /* \"#utility.yul\":4015:4036   */\n      and\n        /* \"#utility.yul\":4006:4036   */\n      swap4\n      pop\n        /* \"#utility.yul\":4079:4083   */\n      dup1\n        /* \"#utility.yul\":4069:4077   */\n      dup7\n        /* \"#utility.yul\":4065:4084   */\n      and\n        /* \"#utility.yul\":4058:4063   */\n      dup5\n        /* \"#utility.yul\":4055:4085   */\n      or\n        /* \"#utility.yul\":4045:4085   */\n      swap3\n      pop\n        /* \"#utility.yul\":3774:4091   */\n      pop\n      pop\n        /* \"#utility.yul\":3698:4091   */\n      swap4\n      swap3\n      pop\n      pop\n      pop\n      jump\t// out\n        /* \"#utility.yul\":4097:4174   */\n    tag_34:\n        /* \"#utility.yul\":4134:4141   */\n      0x00\n        /* \"#utility.yul\":4163:4168   */\n      dup2\n        /* \"#utility.yul\":4152:4168   */\n      swap1\n      pop\n        /* \"#utility.yul\":4097:4174   */\n      swap2\n      swap1\n      pop\n      jump\t// out\n        /* \"#utility.yul\":4180:4240   */\n    tag_35:\n        /* \"#utility.yul\":4208:4211   */\n      0x00\n        /* \"#utility.yul\":4229:4234   */\n      dup2\n        /* \"#utility.yul\":4222:4234   */\n      swap1\n      pop\n        /* \"#utility.yul\":4180:4240   */\n      swap2\n      swap1\n      pop\n      jump\t// out\n        /* \"#utility.yul\":4246:4388   */\n    tag_36:\n        /* \"#utility.yul\":4296:4305   */\n      0x00\n        /* \"#utility.yul\":4329:4382   */\n      tag_87\n        /* \"#utility.yul\":4347:4381   */\n      tag_88\n        /* \"#utility.yul\":4356:4380   */\n      tag_89\n        /* \"#utility.yul\":4374:4379   */\n      dup5\n        /* \"#utility.yul\":4356:4380   */\n      tag_34\n      jump\t// in\n    tag_89:\n        /* \"#utility.yul\":4347:4381   */\n      tag_35\n      jump\t// in\n    tag_88:\n        /* \"#utility.yul\":4329:4382   */\n      tag_34\n      jump\t// in\n    tag_87:\n        /* \"#utility.yul\":4316:4382   */\n      swap1\n      pop\n        /* \"#utility.yul\":4246:4388   */\n      swap2\n      swap1\n      pop\n      jump\t// out\n        /* \"#utility.yul\":4394:4469   */\n    tag_37:\n        /* \"#utility.yul\":4437:4440   */\n      0x00\n        /* \"#utility.yul\":4458:4463   */\n      dup2\n        /* \"#utility.yul\":4451:4463   */\n      swap1\n      pop\n        /* \"#utility.yul\":4394:4469   */\n      swap2\n      swap1\n      pop\n      jump\t// out\n        /* \"#utility.yul\":4475:4744   */\n    tag_38:\n        /* \"#utility.yul\":4585:4624   */\n      tag_92\n        /* \"#utility.yul\":4616:4623   */\n      dup4\n        /* \"#utility.yul\":4585:4624   */\n      tag_36\n      jump\t// in\n    tag_92:\n        /* \"#utility.yul\":4646:4737   */\n      tag_93\n        /* \"#utility.yul\":4695:4736   */\n      tag_94\n        /* \"#utility.yul\":4719:4735   */\n      dup3\n        /* \"#utility.yul\":4695:4736   */\n      tag_37\n      jump\t// in\n    tag_94:\n        /* \"#utility.yul\":4687:4693   */\n      dup5\n        /* \"#utility.yul\":4680:4684   */\n      dup5\n        /* \"#utility.yul\":4674:4685   */\n      sload\n        /* \"#utility.yul\":4646:4737   */\n      tag_33\n      jump\t// in\n    tag_93:\n        /* \"#utility.yul\":4640:4644   */\n      dup3\n        /* \"#utility.yul\":4633:4738   */\n      sstore\n        /* \"#utility.yul\":4551:4744   */\n      pop\n        /* \"#utility.yul\":4475:4744   */\n      pop\n      pop\n      pop\n      jump\t// out\n        /* \"#utility.yul\":4750:4823   */\n    tag_39:\n        /* \"#utility.yul\":4795:4798   */\n      0x00\n        /* \"#utility.yul\":4816:4817   */\n      0x00\n        /* \"#utility.yul\":4809:4817   */\n      swap1\n      pop\n        /* \"#utility.yul\":4750:4823   */\n      swap1\n      jump\t// out\n        /* \"#utility.yul\":4829:5018   */\n    tag_40:\n        /* \"#utility.yul\":4906:4938   */\n      tag_97\n      tag_39\n      jump\t// in\n    tag_97:\n        /* \"#utility.yul\":4947:5012   */\n      tag_98\n        /* \"#utility.yul\":5005:5011   */\n      dup2\n        /* \"#utility.yul\":4997:5003   */\n      dup5\n        /* \"#utility.yul\":4991:4995   */\n      dup5\n        /* \"#utility.yul\":4947:5012   */\n      tag_38\n      jump\t// in\n    tag_98:\n        /* \"#utility.yul\":4882:5018   */\n      pop\n        /* \"#utility.yul\":4829:5018   */\n      pop\n      pop\n      jump\t// out\n        /* \"#utility.yul\":5024:5210   */\n    tag_41:\n        /* \"#utility.yul\":5084:5204   */\n    tag_100:\n        /* \"#utility.yul\":5101:5104   */\n      dup2\n        /* \"#utility.yul\":5094:5099   */\n      dup2\n        /* \"#utility.yul\":5091:5105   */\n      lt\n        /* \"#utility.yul\":5084:5204   */\n      iszero\n      tag_102\n      jumpi\n        /* \"#utility.yul\":5155:5194   */\n      tag_103\n        /* \"#utility.yul\":5192:5193   */\n      0x00\n        /* \"#utility.yul\":5185:5190   */\n      dup3\n        /* \"#utility.yul\":5155:5194   */\n      tag_40\n      jump\t// in\n    tag_103:\n        /* \"#utility.yul\":5128:5129   */\n      0x01\n        /* \"#utility.yul\":5121:5126   */\n      dup2\n        /* \"#utility.yul\":5117:5130   */\n      add\n        /* \"#utility.yul\":5108:5130   */\n      swap1\n      pop\n        /* \"#utility.yul\":5084:5204   */\n      jump(tag_100)\n    tag_102:\n        /* \"#utility.yul\":5024:5210   */\n      pop\n      pop\n      jump\t// out\n        /* \"#utility.yul\":5216:5759   */\n    tag_42:\n        /* \"#utility.yul\":5317:5319   */\n      0x1f\n        /* \"#utility.yul\":5312:5315   */\n      dup3\n        /* \"#utility.yul\":5309:5320   */\n      gt\n        /* \"#utility.yul\":5306:5752   */\n      iszero\n      tag_105\n      jumpi\n        /* \"#utility.yul\":5351:5389   */\n      tag_106\n        /* \"#utility.yul\":5383:5388   */\n      dup2\n        /* \"#utility.yul\":5351:5389   */\n      tag_29\n      jump\t// in\n    tag_106:\n        /* \"#utility.yul\":5435:5464   */\n      tag_107\n        /* \"#utility.yul\":5453:5463   */\n      dup5\n        /* \"#utility.yul\":5435:5464   */\n      tag_31\n      jump\t// in\n    tag_107:\n        /* \"#utility.yul\":5425:5433   */\n      dup2\n        /* \"#utility.yul\":5421:5465   */\n      add\n        /* \"#utility.yul\":5618:5620   */\n      0x20\n        /* \"#utility.yul\":5606:5616   */\n      dup6\n        /* \"#utility.yul\":5603:5621   */\n      lt\n        /* \"#utility.yul\":5600:5649   */\n      iszero\n      tag_108\n      jumpi\n        /* \"#utility.yul\":5639:5647   */\n      dup2\n        /* \"#utility.yul\":5624:5647   */\n      swap1\n      pop\n        /* \"#utility.yul\":5600:5649   */\n    tag_108:\n        /* \"#utility.yul\":5662:5742   */\n      tag_109\n        /* \"#utility.yul\":5718:5740   */\n      tag_110\n        /* \"#utility.yul\":5736:5739   */\n      dup6\n        /* \"#utility.yul\":5718:5740   */\n      tag_31\n      jump\t// in\n    tag_110:\n        /* \"#utility.yul\":5708:5716   */\n      dup4\n        /* \"#utility.yul\":5704:5741   */\n      add\n        /* \"#utility.yul\":5691:5702   */\n      dup3\n        /* \"#utility.yul\":5662:5742   */\n      tag_41\n      jump\t// in\n    tag_109:\n        /* \"#utility.yul\":5321:5752   */\n      pop\n      pop\n        /* \"#utility.yul\":5306:5752   */\n    tag_105:\n        /* \"#utility.yul\":5216:5759   */\n      pop\n      pop\n      pop\n      jump\t// out\n        /* \"#utility.yul\":5765:5882   */\n    tag_43:\n        /* \"#utility.yul\":5819:5827   */\n      0x00\n        /* \"#utility.yul\":5869:5874   */\n      dup3\n        /* \"#utility.yul\":5863:5867   */\n      dup3\n        /* \"#utility.yul\":5859:5875   */\n      shr\n        /* \"#utility.yul\":5838:5875   */\n      swap1\n      pop\n        /* \"#utility.yul\":5765:5882   */\n      swap3\n      swap2\n      pop\n      pop\n      jump\t// out\n        /* \"#utility.yul\":5888:6057   */\n    tag_44:\n        /* \"#utility.yul\":5932:5938   */\n      0x00\n        /* \"#utility.yul\":5965:6016   */\n      tag_113\n        /* \"#utility.yul\":6013:6014   */\n      0x00\n        /* \"#utility.yul\":6009:6015   */\n      not\n        /* \"#utility.yul\":6001:6006   */\n      dup5\n        /* \"#utility.yul\":5998:5999   */\n      0x08\n        /* \"#utility.yul\":5994:6007   */\n      mul\n        /* \"#utility.yul\":5965:6016   */\n      tag_43\n      jump\t// in\n    tag_113:\n        /* \"#utility.yul\":5961:6017   */\n      not\n        /* \"#utility.yul\":6046:6050   */\n      dup1\n        /* \"#utility.yul\":6040:6044   */\n      dup4\n        /* \"#utility.yul\":6036:6051   */\n      and\n        /* \"#utility.yul\":6026:6051   */\n      swap2\n      pop\n        /* \"#utility.yul\":5939:6057   */\n      pop\n        /* \"#utility.yul\":5888:6057   */\n      swap3\n      swap2\n      pop\n      pop\n      jump\t// out\n        /* \"#utility.yul\":6062:6357   */\n    tag_45:\n        /* \"#utility.yul\":6138:6142   */\n      0x00\n        /* \"#utility.yul\":6284:6313   */\n      tag_115\n        /* \"#utility.yul\":6309:6312   */\n      dup4\n        /* \"#utility.yul\":6303:6307   */\n      dup4\n        /* \"#utility.yul\":6284:6313   */\n      tag_44\n      jump\t// in\n    tag_115:\n        /* \"#utility.yul\":6276:6313   */\n      swap2\n      pop\n        /* \"#utility.yul\":6346:6349   */\n      dup3\n        /* \"#utility.yul\":6343:6344   */\n      0x02\n        /* \"#utility.yul\":6339:6350   */\n      mul\n        /* \"#utility.yul\":6333:6337   */\n      dup3\n        /* \"#utility.yul\":6330:6351   */\n      or\n        /* \"#utility.yul\":6322:6351   */\n      swap1\n      pop\n        /* \"#utility.yul\":6062:6357   */\n      swap3\n      swap2\n      pop\n      pop\n      jump\t// out\n        /* \"#utility.yul\":6362:7825   */\n    tag_13:\n        /* \"#utility.yul\":6477:6480   */\n      dup2\n        /* \"#utility.yul\":6471:6475   */\n      dup2\n        /* \"#utility.yul\":6468:6481   */\n      sub\n        /* \"#utility.yul\":6465:6491   */\n      tag_117\n      jumpi\n        /* \"#utility.yul\":6484:6489   */\n      pop\n      pop\n      jump(tag_116)\n        /* \"#utility.yul\":6465:6491   */\n    tag_117:\n        /* \"#utility.yul\":6515:6553   */\n      tag_118\n        /* \"#utility.yul\":6549:6552   */\n      dup3\n        /* \"#utility.yul\":6515:6553   */\n      tag_27\n      jump\t// in\n    tag_118:\n        /* \"#utility.yul\":6618:6636   */\n      0xffffffffffffffff\n        /* \"#utility.yul\":6610:6616   */\n      dup2\n        /* \"#utility.yul\":6607:6637   */\n      gt\n        /* \"#utility.yul\":6604:6660   */\n      iszero\n      tag_119\n      jumpi\n        /* \"#utility.yul\":6640:6658   */\n      tag_120\n      tag_28\n      jump\t// in\n    tag_120:\n        /* \"#utility.yul\":6604:6660   */\n    tag_119:\n        /* \"#utility.yul\":6684:6722   */\n      tag_121\n        /* \"#utility.yul\":6716:6720   */\n      dup3\n        /* \"#utility.yul\":6710:6721   */\n      sload\n        /* \"#utility.yul\":6684:6722   */\n      tag_26\n      jump\t// in\n    tag_121:\n        /* \"#utility.yul\":6769:6836   */\n      tag_122\n        /* \"#utility.yul\":6829:6835   */\n      dup3\n        /* \"#utility.yul\":6821:6827   */\n      dup3\n        /* \"#utility.yul\":6815:6819   */\n      dup6\n        /* \"#utility.yul\":6769:6836   */\n      tag_42\n      jump\t// in\n    tag_122:\n        /* \"#utility.yul\":6863:6864   */\n      0x00\n        /* \"#utility.yul\":6892:6894   */\n      0x1f\n        /* \"#utility.yul\":6884:6890   */\n      dup4\n        /* \"#utility.yul\":6881:6895   */\n      gt\n        /* \"#utility.yul\":6909:6910   */\n      0x01\n        /* \"#utility.yul\":6904:7580   */\n      dup2\n      eq\n      tag_124\n      jumpi\n        /* \"#utility.yul\":7624:7625   */\n      0x00\n        /* \"#utility.yul\":7641:7647   */\n      dup5\n        /* \"#utility.yul\":7638:7715   */\n      iszero\n      tag_125\n      jumpi\n        /* \"#utility.yul\":7690:7699   */\n      dup3\n        /* \"#utility.yul\":7685:7688   */\n      dup8\n        /* \"#utility.yul\":7681:7700   */\n      add\n        /* \"#utility.yul\":7675:7701   */\n      sload\n        /* \"#utility.yul\":7666:7701   */\n      swap1\n      pop\n        /* \"#utility.yul\":7638:7715   */\n    tag_125:\n        /* \"#utility.yul\":7741:7808   */\n      tag_126\n        /* \"#utility.yul\":7801:7807   */\n      dup6\n        /* \"#utility.yul\":7794:7799   */\n      dup3\n        /* \"#utility.yul\":7741:7808   */\n      tag_45\n      jump\t// in\n    tag_126:\n        /* \"#utility.yul\":7735:7739   */\n      dup7\n        /* \"#utility.yul\":7728:7809   */\n      sstore\n        /* \"#utility.yul\":7597:7819   */\n      pop\n        /* \"#utility.yul\":6874:7819   */\n      jump(tag_123)\n        /* \"#utility.yul\":6904:7580   */\n    tag_124:\n        /* \"#utility.yul\":6956:6960   */\n      0x1f\n        /* \"#utility.yul\":6952:6961   */\n      not\n        /* \"#utility.yul\":6944:6950   */\n      dup5\n        /* \"#utility.yul\":6940:6962   */\n      and\n        /* \"#utility.yul\":6982:7022   */\n      tag_127\n        /* \"#utility.yul\":7018:7021   */\n      dup8\n        /* \"#utility.yul\":6982:7022   */\n      tag_30\n      jump\t// in\n    tag_127:\n        /* \"#utility.yul\":6975:7022   */\n      swap7\n      pop\n        /* \"#utility.yul\":7049:7086   */\n      tag_128\n        /* \"#utility.yul\":7081:7085   */\n      dup7\n        /* \"#utility.yul\":7049:7086   */\n      tag_29\n      jump\t// in\n    tag_128:\n        /* \"#utility.yul\":7108:7109   */\n      0x00\n        /* \"#utility.yul\":7122:7329   */\n    tag_129:\n        /* \"#utility.yul\":7136:7143   */\n      dup3\n        /* \"#utility.yul\":7133:7134   */\n      dup2\n        /* \"#utility.yul\":7130:7144   */\n      lt\n        /* \"#utility.yul\":7122:7329   */\n      iszero\n      tag_131\n      jumpi\n        /* \"#utility.yul\":7215:7224   */\n      dup5\n        /* \"#utility.yul\":7210:7213   */\n      dup10\n        /* \"#utility.yul\":7206:7225   */\n      add\n        /* \"#utility.yul\":7200:7226   */\n      sload\n        /* \"#utility.yul\":7192:7198   */\n      dup3\n        /* \"#utility.yul\":7185:7227   */\n      sstore\n        /* \"#utility.yul\":7266:7267   */\n      0x01\n        /* \"#utility.yul\":7258:7264   */\n      dup3\n        /* \"#utility.yul\":7254:7268   */\n      add\n        /* \"#utility.yul\":7244:7268   */\n      swap2\n      pop\n        /* \"#utility.yul\":7313:7314   */\n      0x01\n        /* \"#utility.yul\":7302:7311   */\n      dup6\n        /* \"#utility.yul\":7298:7315   */\n      add\n        /* \"#utility.yul\":7285:7315   */\n      swap5\n      pop\n        /* \"#utility.yul\":7159:7163   */\n      0x20\n        /* \"#utility.yul\":7156:7157   */\n      dup2\n        /* \"#utility.yul\":7152:7164   */\n      add\n        /* \"#utility.yul\":7147:7164   */\n      swap1\n      pop\n        /* \"#utility.yul\":7122:7329   */\n      jump(tag_129)\n    tag_131:\n        /* \"#utility.yul\":7357:7363   */\n      dup7\n        /* \"#utility.yul\":7348:7355   */\n      dup4\n        /* \"#utility.yul\":7345:7364   */\n      lt\n        /* \"#utility.yul\":7342:7521   */\n      iszero\n      tag_132\n      jumpi\n        /* \"#utility.yul\":7415:7424   */\n      dup5\n        /* \"#utility.yul\":7410:7413   */\n      dup10\n        /* \"#utility.yul\":7406:7425   */\n      add\n        /* \"#utility.yul\":7400:7426   */\n      sload\n        /* \"#utility.yul\":7458:7506   */\n      tag_133\n        /* \"#utility.yul\":7500:7504   */\n      0x1f\n        /* \"#utility.yul\":7492:7498   */\n      dup10\n        /* \"#utility.yul\":7488:7505   */\n      and\n        /* \"#utility.yul\":7477:7486   */\n      dup3\n        /* \"#utility.yul\":7458:7506   */\n      tag_44\n      jump\t// in\n    tag_133:\n        /* \"#utility.yul\":7450:7456   */\n      dup4\n        /* \"#utility.yul\":7443:7507   */\n      sstore\n        /* \"#utility.yul\":7365:7521   */\n      pop\n        /* \"#utility.yul\":7342:7521   */\n    tag_132:\n        /* \"#utility.yul\":7567:7568   */\n      0x01\n        /* \"#utility.yul\":7563:7564   */\n      0x02\n        /* \"#utility.yul\":7555:7561   */\n      dup9\n        /* \"#utility.yul\":7551:7565   */\n      mul\n        /* \"#utility.yul\":7547:7569   */\n      add\n        /* \"#utility.yul\":7541:7545   */\n      dup9\n        /* \"#utility.yul\":7534:7570   */\n      sstore\n        /* \"#utility.yul\":6911:7580   */\n      pop\n      pop\n      pop\n        /* \"#utility.yul\":6874:7819   */\n    tag_123:\n      pop\n        /* \"#utility.yul\":6455:7825   */\n      pop\n      pop\n      pop\n        /* \"#utility.yul\":6362:7825   */\n      pop\n      pop\n    tag_116:\n      jump\t// out\n\n    auxdata: 0xa2646970667358221220ae91ec5e71fa0914852279c0b45db01c506dd86fb5d71b2ed037f7bd2933748264736f6c634300081e0033\n}\n",
				"bytecode": {
					"linkReferences": {},
					"object": "60806040526040518060400160405280601681526020017f77616c6c6574206164647265737320656e7465726564000000000000000000008152506002908161004891906102dc565b506040518060400160405280601d81526020017f77616c6c6574206164647265737320616c7265616479206578697374730000008152506003908161008d91906102dc565b50348015610099575f5ffd5b506103ab565b5f81519050919050565b7f4e487b71000000000000000000000000000000000000000000000000000000005f52604160045260245ffd5b7f4e487b71000000000000000000000000000000000000000000000000000000005f52602260045260245ffd5b5f600282049050600182168061011a57607f821691505b60208210810361012d5761012c6100d6565b5b50919050565b5f819050815f5260205f209050919050565b5f6020601f8301049050919050565b5f82821b905092915050565b5f6008830261018f7fffffffffffffffffffffffffffffffffffffffffffffffffffffffffffffffff82610154565b6101998683610154565b95508019841693508086168417925050509392505050565b5f819050919050565b5f819050919050565b5f6101dd6101d86101d3846101b1565b6101ba565b6101b1565b9050919050565b5f819050919050565b6101f6836101c3565b61020a610202826101e4565b848454610160565b825550505050565b5f5f905090565b610221610212565b61022c8184846101ed565b505050565b5b8181101561024f576102445f82610219565b600181019050610232565b5050565b601f8211156102945761026581610133565b61026e84610145565b8101602085101561027d578190505b61029161028985610145565b830182610231565b50505b505050565b5f82821c905092915050565b5f6102b45f1984600802610299565b1980831691505092915050565b5f6102cc83836102a5565b9150826002028217905092915050565b6102e58261009f565b67ffffffffffffffff8111156102fe576102fd6100a9565b5b6103088254610103565b610313828285610253565b5f60209050601f831160018114610344575f8415610332578287015190505b61033c85826102c1565b8655506103a3565b601f19841661035286610133565b5f5b8281101561037957848901518255600182019150602085019450602081019050610354565b868310156103965784890151610392601f8916826102a5565b8355505b6001600288020188555050505b505050505050565b61067a806103b85f395ff3fe608060405234801561000f575f5ffd5b5060043610610029575f3560e01c80633af32abf1461002d575b5f5ffd5b61004760048036038101906100429190610262565b610049565b005b5f5f8273ffffffffffffffffffffffffffffffffffffffff1673ffffffffffffffffffffffffffffffffffffffff1681526020019081526020015f205f9054906101000a900460ff16156100d2576040517f08c379a00000000000000000000000000000000000000000000000000000000081526004016100c9906102e7565b60405180910390fd5b600260015f8373ffffffffffffffffffffffffffffffffffffffff1673ffffffffffffffffffffffffffffffffffffffff1681526020019081526020015f20908161011d919061055f565b5060015f5f8373ffffffffffffffffffffffffffffffffffffffff1673ffffffffffffffffffffffffffffffffffffffff1681526020019081526020015f205f6101000a81548160ff021916908315150217905550600460405180602001604052808373ffffffffffffffffffffffffffffffffffffffff16815250908060018154018082558091505060019003905f5260205f20015f909190919091505f820151815f015f6101000a81548173ffffffffffffffffffffffffffffffffffffffff021916908373ffffffffffffffffffffffffffffffffffffffff160217905550505050565b5f5ffd5b5f73ffffffffffffffffffffffffffffffffffffffff82169050919050565b5f61023182610208565b9050919050565b61024181610227565b811461024b575f5ffd5b50565b5f8135905061025c81610238565b92915050565b5f6020828403121561027757610276610204565b5b5f6102848482850161024e565b91505092915050565b5f82825260208201905092915050565b7f74686973206164647265737320616c72656164792065786973747300000000005f82015250565b5f6102d1601b8361028d565b91506102dc8261029d565b602082019050919050565b5f6020820190508181035f8301526102fe816102c5565b9050919050565b7f4e487b71000000000000000000000000000000000000000000000000000000005f52602260045260245ffd5b5f600282049050600182168061034957607f821691505b60208210810361035c5761035b610305565b5b50919050565b5f8154905061037081610332565b9050919050565b7f4e487b71000000000000000000000000000000000000000000000000000000005f52604160045260245ffd5b5f819050815f5260205f209050919050565b5f819050815f5260205f209050919050565b5f6020601f8301049050919050565b5f82821b905092915050565b5f600883026104127fffffffffffffffffffffffffffffffffffffffffffffffffffffffffffffffff826103d7565b61041c86836103d7565b95508019841693508086168417925050509392505050565b5f819050919050565b5f819050919050565b5f61046061045b61045684610434565b61043d565b610434565b9050919050565b5f819050919050565b61047983610446565b61048d61048582610467565b8484546103e3565b825550505050565b5f5f905090565b6104a4610495565b6104af818484610470565b505050565b5b818110156104d2576104c75f8261049c565b6001810190506104b5565b5050565b601f821115610517576104e8816103a4565b6104f1846103c8565b81016020851015610500578190505b61051461050c856103c8565b8301826104b4565b50505b505050565b5f82821c905092915050565b5f6105375f198460080261051c565b1980831691505092915050565b5f61054f8383610528565b9150826002028217905092915050565b81810361056d575050610642565b61057682610362565b67ffffffffffffffff81111561058f5761058e610377565b5b6105998254610332565b6105a48282856104d6565b5f601f8311600181146105d1575f84156105bf578287015490505b6105c98582610544565b86555061063b565b601f1984166105df876103b6565b96506105ea866103a4565b5f5b82811015610611578489015482556001820191506001850194506020810190506105ec565b8683101561062e578489015461062a601f891682610528565b8355505b6001600288020188555050505b5050505050505b56fea2646970667358221220ae91ec5e71fa0914852279c0b45db01c506dd86fb5d71b2ed037f7bd2933748264736f6c634300081e0033",
					"opcodes": "PUSH1 0x80 PUSH1 0x40 MSTORE PUSH1 0x40 MLOAD DUP1 PUSH1 0x40 ADD PUSH1 0x40 MSTORE DUP1 PUSH1 0x16 DUP2 MSTORE PUSH1 0x20 ADD PUSH32 0x77616C6C6574206164647265737320656E746572656400000000000000000000 DUP2 MSTORE POP PUSH1 0x2 SWAP1 DUP2 PUSH2 0x48 SWAP2 SWAP1 PUSH2 0x2DC JUMP JUMPDEST POP PUSH1 0x40 MLOAD DUP1 PUSH1 0x40 ADD PUSH1 0x40 MSTORE DUP1 PUSH1 0x1D DUP2 MSTORE PUSH1 0x20 ADD PUSH32 0x77616C6C6574206164647265737320616C726561647920657869737473000000 DUP2 MSTORE POP PUSH1 0x3 SWAP1 DUP2 PUSH2 0x8D SWAP2 SWAP1 PUSH2 0x2DC JUMP JUMPDEST POP CALLVALUE DUP1 ISZERO PUSH2 0x99 JUMPI PUSH0 PUSH0 REVERT JUMPDEST POP PUSH2 0x3AB JUMP JUMPDEST PUSH0 DUP2 MLOAD SWAP1 POP SWAP2 SWAP1 POP JUMP JUMPDEST PUSH32 0x4E487B7100000000000000000000000000000000000000000000000000000000 PUSH0 MSTORE PUSH1 0x41 PUSH1 0x4 MSTORE PUSH1 0x24 PUSH0 REVERT JUMPDEST PUSH32 0x4E487B7100000000000000000000000000000000000000000000000000000000 PUSH0 MSTORE PUSH1 0x22 PUSH1 0x4 MSTORE PUSH1 0x24 PUSH0 REVERT JUMPDEST PUSH0 PUSH1 0x2 DUP3 DIV SWAP1 POP PUSH1 0x1 DUP3 AND DUP1 PUSH2 0x11A JUMPI PUSH1 0x7F DUP3 AND SWAP2 POP JUMPDEST PUSH1 0x20 DUP3 LT DUP2 SUB PUSH2 0x12D JUMPI PUSH2 0x12C PUSH2 0xD6 JUMP JUMPDEST JUMPDEST POP SWAP2 SWAP1 POP JUMP JUMPDEST PUSH0 DUP2 SWAP1 POP DUP2 PUSH0 MSTORE PUSH1 0x20 PUSH0 KECCAK256 SWAP1 POP SWAP2 SWAP1 POP JUMP JUMPDEST PUSH0 PUSH1 0x20 PUSH1 0x1F DUP4 ADD DIV SWAP1 POP SWAP2 SWAP1 POP JUMP JUMPDEST PUSH0 DUP3 DUP3 SHL SWAP1 POP SWAP3 SWAP2 POP POP JUMP JUMPDEST PUSH0 PUSH1 0x8 DUP4 MUL PUSH2 0x18F PUSH32 0xFFFFFFFFFFFFFFFFFFFFFFFFFFFFFFFFFFFFFFFFFFFFFFFFFFFFFFFFFFFFFFFF DUP3 PUSH2 0x154 JUMP JUMPDEST PUSH2 0x199 DUP7 DUP4 PUSH2 0x154 JUMP JUMPDEST SWAP6 POP DUP1 NOT DUP5 AND SWAP4 POP DUP1 DUP7 AND DUP5 OR SWAP3 POP POP POP SWAP4 SWAP3 POP POP POP JUMP JUMPDEST PUSH0 DUP2 SWAP1 POP SWAP2 SWAP1 POP JUMP JUMPDEST PUSH0 DUP2 SWAP1 POP SWAP2 SWAP1 POP JUMP JUMPDEST PUSH0 PUSH2 0x1DD PUSH2 0x1D8 PUSH2 0x1D3 DUP5 PUSH2 0x1B1 JUMP JUMPDEST PUSH2 0x1BA JUMP JUMPDEST PUSH2 0x1B1 JUMP JUMPDEST SWAP1 POP SWAP2 SWAP1 POP JUMP JUMPDEST PUSH0 DUP2 SWAP1 POP SWAP2 SWAP1 POP JUMP JUMPDEST PUSH2 0x1F6 DUP4 PUSH2 0x1C3 JUMP JUMPDEST PUSH2 0x20A PUSH2 0x202 DUP3 PUSH2 0x1E4 JUMP JUMPDEST DUP5 DUP5 SLOAD PUSH2 0x160 JUMP JUMPDEST DUP3 SSTORE POP POP POP POP JUMP JUMPDEST PUSH0 PUSH0 SWAP1 POP SWAP1 JUMP JUMPDEST PUSH2 0x221 PUSH2 0x212 JUMP JUMPDEST PUSH2 0x22C DUP2 DUP5 DUP5 PUSH2 0x1ED JUMP JUMPDEST POP POP POP JUMP JUMPDEST JUMPDEST DUP2 DUP2 LT ISZERO PUSH2 0x24F JUMPI PUSH2 0x244 PUSH0 DUP3 PUSH2 0x219 JUMP JUMPDEST PUSH1 0x1 DUP2 ADD SWAP1 POP PUSH2 0x232 JUMP JUMPDEST POP POP JUMP JUMPDEST PUSH1 0x1F DUP3 GT ISZERO PUSH2 0x294 JUMPI PUSH2 0x265 DUP2 PUSH2 0x133 JUMP JUMPDEST PUSH2 0x26E DUP5 PUSH2 0x145 JUMP JUMPDEST DUP2 ADD PUSH1 0x20 DUP6 LT ISZERO PUSH2 0x27D JUMPI DUP2 SWAP1 POP JUMPDEST PUSH2 0x291 PUSH2 0x289 DUP6 PUSH2 0x145 JUMP JUMPDEST DUP4 ADD DUP3 PUSH2 0x231 JUMP JUMPDEST POP POP JUMPDEST POP POP POP JUMP JUMPDEST PUSH0 DUP3 DUP3 SHR SWAP1 POP SWAP3 SWAP2 POP POP JUMP JUMPDEST PUSH0 PUSH2 0x2B4 PUSH0 NOT DUP5 PUSH1 0x8 MUL PUSH2 0x299 JUMP JUMPDEST NOT DUP1 DUP4 AND SWAP2 POP POP SWAP3 SWAP2 POP POP JUMP JUMPDEST PUSH0 PUSH2 0x2CC DUP4 DUP4 PUSH2 0x2A5 JUMP JUMPDEST SWAP2 POP DUP3 PUSH1 0x2 MUL DUP3 OR SWAP1 POP SWAP3 SWAP2 POP POP JUMP JUMPDEST PUSH2 0x2E5 DUP3 PUSH2 0x9F JUMP JUMPDEST PUSH8 0xFFFFFFFFFFFFFFFF DUP2 GT ISZERO PUSH2 0x2FE JUMPI PUSH2 0x2FD PUSH2 0xA9 JUMP JUMPDEST JUMPDEST PUSH2 0x308 DUP3 SLOAD PUSH2 0x103 JUMP JUMPDEST PUSH2 0x313 DUP3 DUP3 DUP6 PUSH2 0x253 JUMP JUMPDEST PUSH0 PUSH1 0x20 SWAP1 POP PUSH1 0x1F DUP4 GT PUSH1 0x1 DUP2 EQ PUSH2 0x344 JUMPI PUSH0 DUP5 ISZERO PUSH2 0x332 JUMPI DUP3 DUP8 ADD MLOAD SWAP1 POP JUMPDEST PUSH2 0x33C DUP6 DUP3 PUSH2 0x2C1 JUMP JUMPDEST DUP7 SSTORE POP PUSH2 0x3A3 JUMP JUMPDEST PUSH1 0x1F NOT DUP5 AND PUSH2 0x352 DUP7 PUSH2 0x133 JUMP JUMPDEST PUSH0 JUMPDEST DUP3 DUP2 LT ISZERO PUSH2 0x379 JUMPI DUP5 DUP10 ADD MLOAD DUP3 SSTORE PUSH1 0x1 DUP3 ADD SWAP2 POP PUSH1 0x20 DUP6 ADD SWAP5 POP PUSH1 0x20 DUP2 ADD SWAP1 POP PUSH2 0x354 JUMP JUMPDEST DUP7 DUP4 LT ISZERO PUSH2 0x396 JUMPI DUP5 DUP10 ADD MLOAD PUSH2 0x392 PUSH1 0x1F DUP10 AND DUP3 PUSH2 0x2A5 JUMP JUMPDEST DUP4 SSTORE POP JUMPDEST PUSH1 0x1 PUSH1 0x2 DUP9 MUL ADD DUP9 SSTORE POP POP POP JUMPDEST POP POP POP POP POP POP JUMP JUMPDEST PUSH2 0x67A DUP1 PUSH2 0x3B8 PUSH0 CODECOPY PUSH0 RETURN INVALID PUSH1 0x80 PUSH1 0x40 MSTORE CALLVALUE DUP1 ISZERO PUSH2 0xF JUMPI PUSH0 PUSH0 REVERT JUMPDEST POP PUSH1 0x4 CALLDATASIZE LT PUSH2 0x29 JUMPI PUSH0 CALLDATALOAD PUSH1 0xE0 SHR DUP1 PUSH4 0x3AF32ABF EQ PUSH2 0x2D JUMPI JUMPDEST PUSH0 PUSH0 REVERT JUMPDEST PUSH2 0x47 PUSH1 0x4 DUP1 CALLDATASIZE SUB DUP2 ADD SWAP1 PUSH2 0x42 SWAP2 SWAP1 PUSH2 0x262 JUMP JUMPDEST PUSH2 0x49 JUMP JUMPDEST STOP JUMPDEST PUSH0 PUSH0 DUP3 PUSH20 0xFFFFFFFFFFFFFFFFFFFFFFFFFFFFFFFFFFFFFFFF AND PUSH20 0xFFFFFFFFFFFFFFFFFFFFFFFFFFFFFFFFFFFFFFFF AND DUP2 MSTORE PUSH1 0x20 ADD SWAP1 DUP2 MSTORE PUSH1 0x20 ADD PUSH0 KECCAK256 PUSH0 SWAP1 SLOAD SWAP1 PUSH2 0x100 EXP SWAP1 DIV PUSH1 0xFF AND ISZERO PUSH2 0xD2 JUMPI PUSH1 0x40 MLOAD PUSH32 0x8C379A000000000000000000000000000000000000000000000000000000000 DUP2 MSTORE PUSH1 0x4 ADD PUSH2 0xC9 SWAP1 PUSH2 0x2E7 JUMP JUMPDEST PUSH1 0x40 MLOAD DUP1 SWAP2 SUB SWAP1 REVERT JUMPDEST PUSH1 0x2 PUSH1 0x1 PUSH0 DUP4 PUSH20 0xFFFFFFFFFFFFFFFFFFFFFFFFFFFFFFFFFFFFFFFF AND PUSH20 0xFFFFFFFFFFFFFFFFFFFFFFFFFFFFFFFFFFFFFFFF AND DUP2 MSTORE PUSH1 0x20 ADD SWAP1 DUP2 MSTORE PUSH1 0x20 ADD PUSH0 KECCAK256 SWAP1 DUP2 PUSH2 0x11D SWAP2 SWAP1 PUSH2 0x55F JUMP JUMPDEST POP PUSH1 0x1 PUSH0 PUSH0 DUP4 PUSH20 0xFFFFFFFFFFFFFFFFFFFFFFFFFFFFFFFFFFFFFFFF AND PUSH20 0xFFFFFFFFFFFFFFFFFFFFFFFFFFFFFFFFFFFFFFFF AND DUP2 MSTORE PUSH1 0x20 ADD SWAP1 DUP2 MSTORE PUSH1 0x20 ADD PUSH0 KECCAK256 PUSH0 PUSH2 0x100 EXP DUP2 SLOAD DUP2 PUSH1 0xFF MUL NOT AND SWAP1 DUP4 ISZERO ISZERO MUL OR SWAP1 SSTORE POP PUSH1 0x4 PUSH1 0x40 MLOAD DUP1 PUSH1 0x20 ADD PUSH1 0x40 MSTORE DUP1 DUP4 PUSH20 0xFFFFFFFFFFFFFFFFFFFFFFFFFFFFFFFFFFFFFFFF AND DUP2 MSTORE POP SWAP1 DUP1 PUSH1 0x1 DUP2 SLOAD ADD DUP1 DUP3 SSTORE DUP1 SWAP2 POP POP PUSH1 0x1 SWAP1 SUB SWAP1 PUSH0 MSTORE PUSH1 0x20 PUSH0 KECCAK256 ADD PUSH0 SWAP1 SWAP2 SWAP1 SWAP2 SWAP1 SWAP2 POP PUSH0 DUP3 ADD MLOAD DUP2 PUSH0 ADD PUSH0 PUSH2 0x100 EXP DUP2 SLOAD DUP2 PUSH20 0xFFFFFFFFFFFFFFFFFFFFFFFFFFFFFFFFFFFFFFFF MUL NOT AND SWAP1 DUP4 PUSH20 0xFFFFFFFFFFFFFFFFFFFFFFFFFFFFFFFFFFFFFFFF AND MUL OR SWAP1 SSTORE POP POP POP POP JUMP JUMPDEST PUSH0 PUSH0 REVERT JUMPDEST PUSH0 PUSH20 0xFFFFFFFFFFFFFFFFFFFFFFFFFFFFFFFFFFFFFFFF DUP3 AND SWAP1 POP SWAP2 SWAP1 POP JUMP JUMPDEST PUSH0 PUSH2 0x231 DUP3 PUSH2 0x208 JUMP JUMPDEST SWAP1 POP SWAP2 SWAP1 POP JUMP JUMPDEST PUSH2 0x241 DUP2 PUSH2 0x227 JUMP JUMPDEST DUP2 EQ PUSH2 0x24B JUMPI PUSH0 PUSH0 REVERT JUMPDEST POP JUMP JUMPDEST PUSH0 DUP2 CALLDATALOAD SWAP1 POP PUSH2 0x25C DUP2 PUSH2 0x238 JUMP JUMPDEST SWAP3 SWAP2 POP POP JUMP JUMPDEST PUSH0 PUSH1 0x20 DUP3 DUP5 SUB SLT ISZERO PUSH2 0x277 JUMPI PUSH2 0x276 PUSH2 0x204 JUMP JUMPDEST JUMPDEST PUSH0 PUSH2 0x284 DUP5 DUP3 DUP6 ADD PUSH2 0x24E JUMP JUMPDEST SWAP2 POP POP SWAP3 SWAP2 POP POP JUMP JUMPDEST PUSH0 DUP3 DUP3 MSTORE PUSH1 0x20 DUP3 ADD SWAP1 POP SWAP3 SWAP2 POP POP JUMP JUMPDEST PUSH32 0x74686973206164647265737320616C7265616479206578697374730000000000 PUSH0 DUP3 ADD MSTORE POP JUMP JUMPDEST PUSH0 PUSH2 0x2D1 PUSH1 0x1B DUP4 PUSH2 0x28D JUMP JUMPDEST SWAP2 POP PUSH2 0x2DC DUP3 PUSH2 0x29D JUMP JUMPDEST PUSH1 0x20 DUP3 ADD SWAP1 POP SWAP2 SWAP1 POP JUMP JUMPDEST PUSH0 PUSH1 0x20 DUP3 ADD SWAP1 POP DUP2 DUP2 SUB PUSH0 DUP4 ADD MSTORE PUSH2 0x2FE DUP2 PUSH2 0x2C5 JUMP JUMPDEST SWAP1 POP SWAP2 SWAP1 POP JUMP JUMPDEST PUSH32 0x4E487B7100000000000000000000000000000000000000000000000000000000 PUSH0 MSTORE PUSH1 0x22 PUSH1 0x4 MSTORE PUSH1 0x24 PUSH0 REVERT JUMPDEST PUSH0 PUSH1 0x2 DUP3 DIV SWAP1 POP PUSH1 0x1 DUP3 AND DUP1 PUSH2 0x349 JUMPI PUSH1 0x7F DUP3 AND SWAP2 POP JUMPDEST PUSH1 0x20 DUP3 LT DUP2 SUB PUSH2 0x35C JUMPI PUSH2 0x35B PUSH2 0x305 JUMP JUMPDEST JUMPDEST POP SWAP2 SWAP1 POP JUMP JUMPDEST PUSH0 DUP2 SLOAD SWAP1 POP PUSH2 0x370 DUP2 PUSH2 0x332 JUMP JUMPDEST SWAP1 POP SWAP2 SWAP1 POP JUMP JUMPDEST PUSH32 0x4E487B7100000000000000000000000000000000000000000000000000000000 PUSH0 MSTORE PUSH1 0x41 PUSH1 0x4 MSTORE PUSH1 0x24 PUSH0 REVERT JUMPDEST PUSH0 DUP2 SWAP1 POP DUP2 PUSH0 MSTORE PUSH1 0x20 PUSH0 KECCAK256 SWAP1 POP SWAP2 SWAP1 POP JUMP JUMPDEST PUSH0 DUP2 SWAP1 POP DUP2 PUSH0 MSTORE PUSH1 0x20 PUSH0 KECCAK256 SWAP1 POP SWAP2 SWAP1 POP JUMP JUMPDEST PUSH0 PUSH1 0x20 PUSH1 0x1F DUP4 ADD DIV SWAP1 POP SWAP2 SWAP1 POP JUMP JUMPDEST PUSH0 DUP3 DUP3 SHL SWAP1 POP SWAP3 SWAP2 POP POP JUMP JUMPDEST PUSH0 PUSH1 0x8 DUP4 MUL PUSH2 0x412 PUSH32 0xFFFFFFFFFFFFFFFFFFFFFFFFFFFFFFFFFFFFFFFFFFFFFFFFFFFFFFFFFFFFFFFF DUP3 PUSH2 0x3D7 JUMP JUMPDEST PUSH2 0x41C DUP7 DUP4 PUSH2 0x3D7 JUMP JUMPDEST SWAP6 POP DUP1 NOT DUP5 AND SWAP4 POP DUP1 DUP7 AND DUP5 OR SWAP3 POP POP POP SWAP4 SWAP3 POP POP POP JUMP JUMPDEST PUSH0 DUP2 SWAP1 POP SWAP2 SWAP1 POP JUMP JUMPDEST PUSH0 DUP2 SWAP1 POP SWAP2 SWAP1 POP JUMP JUMPDEST PUSH0 PUSH2 0x460 PUSH2 0x45B PUSH2 0x456 DUP5 PUSH2 0x434 JUMP JUMPDEST PUSH2 0x43D JUMP JUMPDEST PUSH2 0x434 JUMP JUMPDEST SWAP1 POP SWAP2 SWAP1 POP JUMP JUMPDEST PUSH0 DUP2 SWAP1 POP SWAP2 SWAP1 POP JUMP JUMPDEST PUSH2 0x479 DUP4 PUSH2 0x446 JUMP JUMPDEST PUSH2 0x48D PUSH2 0x485 DUP3 PUSH2 0x467 JUMP JUMPDEST DUP5 DUP5 SLOAD PUSH2 0x3E3 JUMP JUMPDEST DUP3 SSTORE POP POP POP POP JUMP JUMPDEST PUSH0 PUSH0 SWAP1 POP SWAP1 JUMP JUMPDEST PUSH2 0x4A4 PUSH2 0x495 JUMP JUMPDEST PUSH2 0x4AF DUP2 DUP5 DUP5 PUSH2 0x470 JUMP JUMPDEST POP POP POP JUMP JUMPDEST JUMPDEST DUP2 DUP2 LT ISZERO PUSH2 0x4D2 JUMPI PUSH2 0x4C7 PUSH0 DUP3 PUSH2 0x49C JUMP JUMPDEST PUSH1 0x1 DUP2 ADD SWAP1 POP PUSH2 0x4B5 JUMP JUMPDEST POP POP JUMP JUMPDEST PUSH1 0x1F DUP3 GT ISZERO PUSH2 0x517 JUMPI PUSH2 0x4E8 DUP2 PUSH2 0x3A4 JUMP JUMPDEST PUSH2 0x4F1 DUP5 PUSH2 0x3C8 JUMP JUMPDEST DUP2 ADD PUSH1 0x20 DUP6 LT ISZERO PUSH2 0x500 JUMPI DUP2 SWAP1 POP JUMPDEST PUSH2 0x514 PUSH2 0x50C DUP6 PUSH2 0x3C8 JUMP JUMPDEST DUP4 ADD DUP3 PUSH2 0x4B4 JUMP JUMPDEST POP POP JUMPDEST POP POP POP JUMP JUMPDEST PUSH0 DUP3 DUP3 SHR SWAP1 POP SWAP3 SWAP2 POP POP JUMP JUMPDEST PUSH0 PUSH2 0x537 PUSH0 NOT DUP5 PUSH1 0x8 MUL PUSH2 0x51C JUMP JUMPDEST NOT DUP1 DUP4 AND SWAP2 POP POP SWAP3 SWAP2 POP POP JUMP JUMPDEST PUSH0 PUSH2 0x54F DUP4 DUP4 PUSH2 0x528 JUMP JUMPDEST SWAP2 POP DUP3 PUSH1 0x2 MUL DUP3 OR SWAP1 POP SWAP3 SWAP2 POP POP JUMP JUMPDEST DUP2 DUP2 SUB PUSH2 0x56D JUMPI POP POP PUSH2 0x642 JUMP JUMPDEST PUSH2 0x576 DUP3 PUSH2 0x362 JUMP JUMPDEST PUSH8 0xFFFFFFFFFFFFFFFF DUP2 GT ISZERO PUSH2 0x58F JUMPI PUSH2 0x58E PUSH2 0x377 JUMP JUMPDEST JUMPDEST PUSH2 0x599 DUP3 SLOAD PUSH2 0x332 JUMP JUMPDEST PUSH2 0x5A4 DUP3 DUP3 DUP6 PUSH2 0x4D6 JUMP JUMPDEST PUSH0 PUSH1 0x1F DUP4 GT PUSH1 0x1 DUP2 EQ PUSH2 0x5D1 JUMPI PUSH0 DUP5 ISZERO PUSH2 0x5BF JUMPI DUP3 DUP8 ADD SLOAD SWAP1 POP JUMPDEST PUSH2 0x5C9 DUP6 DUP3 PUSH2 0x544 JUMP JUMPDEST DUP7 SSTORE POP PUSH2 0x63B JUMP JUMPDEST PUSH1 0x1F NOT DUP5 AND PUSH2 0x5DF DUP8 PUSH2 0x3B6 JUMP JUMPDEST SWAP7 POP PUSH2 0x5EA DUP7 PUSH2 0x3A4 JUMP JUMPDEST PUSH0 JUMPDEST DUP3 DUP2 LT ISZERO PUSH2 0x611 JUMPI DUP5 DUP10 ADD SLOAD DUP3 SSTORE PUSH1 0x1 DUP3 ADD SWAP2 POP PUSH1 0x1 DUP6 ADD SWAP5 POP PUSH1 0x20 DUP2 ADD SWAP1 POP PUSH2 0x5EC JUMP JUMPDEST DUP7 DUP4 LT ISZERO PUSH2 0x62E JUMPI DUP5 DUP10 ADD SLOAD PUSH2 0x62A PUSH1 0x1F DUP10 AND DUP3 PUSH2 0x528 JUMP JUMPDEST DUP4 SSTORE POP JUMPDEST PUSH1 0x1 PUSH1 0x2 DUP9 MUL ADD DUP9 SSTORE POP POP POP JUMPDEST POP POP POP POP POP POP JUMPDEST JUMP INVALID LOG2 PUSH5 0x6970667358 0x22 SLT KECCAK256 0xAE SWAP2 EOFCREATE 0x5E PUSH18 0xFA0914852279C0B45DB01C506DD86FB5D71B 0x2E 0xD0 CALLDATACOPY 0xF7 0xBD 0x29 CALLER PUSH21 0x8264736F6C634300081E0033000000000000000000 "
				},
				"gasEstimates": {
					"creation": {
						"codeDepositCost": "331600",
						"executionCost": "infinite",
						"totalCost": "infinite"
					},
					"external": {
						"isWhitelisted(address)": "infinite"
					}
				},
				"methodIdentifiers": {
					"isWhitelisted(address)": "3af32abf"
				}
			},
			"storageLayout": {
				"storage": [
					{
						"astId": 5,
						"contract": "contacts.sol:TokenValidator",
						"label": "AddressToBool",
						"offset": 0,
						"slot": "0",
						"type": "t_mapping(t_address,t_bool)"
					},
					{
						"astId": 9,
						"contract": "contacts.sol:TokenValidator",
						"label": "AddressToString",
						"offset": 0,
						"slot": "1",
						"type": "t_mapping(t_address,t_string_storage)"
					},
					{
						"astId": 12,
						"contract": "contacts.sol:TokenValidator",
						"label": "message",
						"offset": 0,
						"slot": "2",
						"type": "t_string_storage"
					},
					{
						"astId": 15,
						"contract": "contacts.sol:TokenValidator",
						"label": "message2",
						"offset": 0,
						"slot": "3",
						"type": "t_string_storage"
					},
					{
						"astId": 22,
						"contract": "contacts.sol:TokenValidator",
						"label": "addresses",
						"offset": 0,
						"slot": "4",
						"type": "t_array(t_struct(Addresses)18_storage)dyn_storage"
					}
				],
				"types": {
					"t_address": {
						"encoding": "inplace",
						"label": "address",
						"numberOfBytes": "20"
					},
					"t_array(t_struct(Addresses)18_storage)dyn_storage": {
						"base": "t_struct(Addresses)18_storage",
						"encoding": "dynamic_array",
						"label": "struct TokenValidator.Addresses[]",
						"numberOfBytes": "32"
					},
					"t_bool": {
						"encoding": "inplace",
						"label": "bool",
						"numberOfBytes": "1"
					},
					"t_mapping(t_address,t_bool)": {
						"encoding": "mapping",
						"key": "t_address",
						"label": "mapping(address => bool)",
						"numberOfBytes": "32",
						"value": "t_bool"
					},
					"t_mapping(t_address,t_string_storage)": {
						"encoding": "mapping",
						"key": "t_address",
						"label": "mapping(address => string)",
						"numberOfBytes": "32",
						"value": "t_string_storage"
					},
					"t_string_storage": {
						"encoding": "bytes",
						"label": "string",
						"numberOfBytes": "32"
					},
					"t_struct(Addresses)18_storage": {
						"encoding": "inplace",
						"label": "struct TokenValidator.Addresses",
						"members": [
							{
								"astId": 17,
								"contract": "contacts.sol:TokenValidator",
								"label": "MyWalletaddress",
								"offset": 0,
								"slot": "0",
								"type": "t_address"
							}
						],
						"numberOfBytes": "32"
					}
				}
			},
			"userdoc": {
				"kind": "user",
				"methods": {},
				"version": 1
			}
		}
	}
}